:020000040800F2
:10000000C8510020BD020008813F0008D92D00081A
:100010009D3E0008F9130008994500080000000003
:1000200000000000000000000000000025020008A1
:10003000FB130008000000006902000825400008CA
:10004000D7020008D7020008D7020008D70200082C
:10005000D7020008D7020008D7020008D70200081C
:10006000D7020008D7020008D7020008D70200080C
:10007000D7020008D7020008D7020008D7020008FC
:10008000D7020008D7020008D7020008D7020008EC
:10009000D7020008D7020008D7020008D7020008DC
:1000A000D7020008D7020008D7020008D7020008CC
:1000B000D7020008D7020008D7020008D7020008BC
:1000C000D7020008D7020008D7020008D7020008AC
:1000D000D70200088D450008D7020008D7020008A3
:1000E000D7020008D7020008D7020008D70200088C
:1000F000D7020008D7020008D7020008D70200087C
:10010000D7020008D7020008D7020008D70200086B
:10011000D7020008D7020008D7020008D70200085B
:10012000D7020008D7020008D7020008D70200084B
:1001300000F002F800F067F80AA090E8000C824492
:100140008344AAF10107DA4501D100F05CF8AFF26F
:10015000090EBAE80F0013F0010F18BFFB1A43F0A5
:1001600001031847387E0000587E00000A444FF013
:10017000000C10F8013B13F0070408BF10F8014B06
:100180001D1108BF10F8015B641E05D010F8016B4B
:10019000641E01F8016BF9D113F0080F1EBF10F8AF
:1001A000014BAD1C0C1B09D16D1E58BF01F801CBD2
:1001B000FAD505E014F8016B01F8016B6D1EF9D555
:1001C0009142D6D37047000000230024002500266A
:1001D000103A28BF78C1FBD8520728BF30C148BFAA
:1001E0000B607047662906F0B285002070471FB586
:1001F00000F0D8FB04000020002106F011FAE060B6
:100200001FBD10B510BD00F0C9FC1146FFF7EFFF90
:1002100004F018FC00F0E7FC03B4FFF7F2FF03BCA6
:1002200000F028FD224B19680868B0E8F00F80F351
:100230000988BFF36F8F4FF0000080F311884EF0F4
:100240000D0E70470000000006480068006880F34B
:10025000088862B661B6BFF34F8FBFF36F8F00DFC0
:1002600000BF00BF08ED00E0EFF30980BFF36F8F20
:100270000F4B1A6820E9F00F106008B54FF0BF006F
:1002800080F31188BFF34F8FBFF36F8F06F01EF816
:100290004FF0000080F31188BDE808401968086835
:1002A000B0E8F00F80F30988BFF36F8F704700BF8D
:1002B0003C010020EFF305807047000009488047AB
:1002C00009480047FEE7FEE7FEE7FEE7FEE7FEE738
:1002D000FEE7FEE7FEE7FEE704480549054A064B50
:1002E000704700009740000831010008C84B00200B
:1002F000C8510020C84D0020C84D00200FB41CB5C7
:10030000074B06AA7B4469460090059800F029FB3C
:100310000020694600F038FB1CBC5DF814FB0000AF
:10032000810600000FB41CB50C0007AA009001D094
:100330002044401E074B7B4469460190069800F01C
:1003400010FB002C03D06946002000F01DFB1CBCF4
:100350005DF814FB590600002DE9F0474FF0000A44
:1003600089460446C0F820A02046E1688847002856
:1003700076D0252806D0D4E901219047206A401C78
:100380002062F1E7E168204600258847C4F81CA0F8
:1003900006460027C4F818A02A2E09D0304604F0DB
:1003A0003AF938B304EB8708303EC8F8186019E012
:1003B00059F8041B204604EB87029161E1688847E5
:1003C000012F064618D1E069002820DA25F0200523
:1003D0001DE0D8F8180000EB800006EB4000303834
:1003E000C8F818002046E1688847064604F013F96B
:1003F0000028EED1012F0AD02E2E08D12046E16828
:1004000088477F1C0646022F45F02005C4DBA06903
:10041000002803DA404245F00105A061E80701D059
:1004200025F01005B6B1A6F14100192802D82036F2
:1004300045F400654A463146204625604D46FFF7A3
:10044000D1FE58B1012806D0ED1D25F0070000F1BE
:10045000080989E704E005F1040985E730468AE7E1
:10046000206ABDE8F08710B5431C02E010F8011BBC
:1004700071B18107FAD14FF0013202C88C1A8C4356
:1004800014EAC211F9D0C01A0A0603D0C01E10BD6A
:10049000C01A10BD0A0401D0801E10BD0902FCD094
:1004A000401E10BD4FF000020429C0F0128010F071
:1004B000030C00F01B80CCF1040CBCF1020F18BF40
:1004C00000F8012BA8BF20F8022BA1EB0C0100F0D3
:1004D0000DB85FEAC17C24BF00F8012B00F8012BA6
:1004E00048BF00F8012B70474FF0000200B51346DB
:1004F00094469646203922BFA0E80C50A0E80C5044
:10050000B1F12001BFF4F7AF090728BFA0E80C50F4
:1005100048BF0CC05DF804EB890028BF40F8042BED
:1005200008BF704748BF20F8022B11F0804F18BF5A
:1005300000F8012B704770477047704770472DE9EE
:10054000FF4F0C461E464FF0FF378BB0D2E900013B
:10055000DDF860800A908A46C1F30A5505B93D4628
:10056000002108464FF00000BAF1000F00F44000EF
:1005700005DA00EB80004FF4400101EA50004FEA39
:100580009059B9F1010F00DDB9460A9850EA4A00C6
:100590000ED044F61050A5F2FF3545432F14B8F1A4
:1005A000000F1ED07542291E1EDDC9F100021CE09D
:1005B000B8F1010F4FF0000001D0302103E0F24309
:1005C00005E02154401CB042FBDB304600220021F4
:1005D00021540B99C1F80880C1E900200FB0BDE893
:1005E000F08FBD1B6D1CDEE74A4600DA694206A8A3
:1005F00000F062FA06AB93E8070003AB83E807005C
:1006000050460A9900F03DFB8DE80700A0F5005028
:100610001F3800900398002D09DD42F21F014A4661
:10062000084403A90390684600F09CFD08E0A0F58B
:1006300000504A461F3803A90390684600F0A6FD03
:100640008DE807000004000C03D04FF0FF30410894
:1006500000E01046B8F1000F03D0002200921546CA
:100660001EE0751E05D400F0A1F9303262556D1EF2
:10067000F9D5B3460122084302D000227F1C04E0D2
:100680002078302801D100227F1E002A099786D0C9
:100690001DE0112D07DA00F089F9303262556D1C2A
:1006A00050EA0102F5D1084302D00098C8B10EE02B
:1006B0000021681E05E0235C625C63542254401EE6
:1006C000491C8142F7DBAB46A81B401E0990002065
:1006D00004F80B000B98099AC0F80880C0E9002BB9
:1006E0007CE711264FF0000859E72DE9F04F8846C6
:1006F0000446D21D22F0070191B0D1E90001CDE9F5
:100700000A0103F04AFF02460B98C00F01D02D20CA
:1007100007E02068810701D52B2002E0202101EAB3
:10072000C000032A099001D0072A05DB0346414691
:10073000204600F081F90BE12078800601D5E069C0
:1007400000E00620B8F1650F814606D0B8F1660FCB
:1007500018D0B8F1670F70D131E00020B9F1110F56
:10076000009001DB112301E009F101030AAA01A9AC
:100770000CA8FFF7E4FEDDE90C70002609F1010585
:10078000834647E001204B4600904FF000470AAAFD
:1007900001A90CA8FFF7D3FEDDE90DB00C995D4669
:1007A000002610B909F101000D18B9EB050003D4BA
:1007B000C0F1FF3609F10105A5EB09002BE0B9F105
:1007C000010F01DA4FF001090020B9F1110F00907B
:1007D000484601DD112300E003460AAA01A90CA83E
:1007E000FFF7ADFEDDE90C704D460026834620780C
:1007F00000070AD4AB4500DA5D4601A8012D04DDEF
:10080000411911F8011C302907D04F4502DA17F1C0
:10081000040F04DA012082460FE06D1EEEE7002F80
:1008200002DCED1B3E4403E0781CA84200DD7D1C89
:10083000B81B00F1010A4FF000472078000703D4ED
:10084000AA4501DB4FF0FF3A0021B7F1004F0DF14F
:1008500043088DF8431024D002202B23002F01DA07
:100860007F422D230A21021EA0F1010000DC5FB1AE
:1008700097FBF1FC97FBF1F201FB1C7C17460CF196
:10088000300C08F801CDEEE7A8F1010003702188D3
:10089000090501D5452100E06521A0F1010800F816
:1008A000011C09980FA9A1EB0807FF1D00B1012049
:1008B000411901EBEA70A1693844081A401EA06191
:1008C0002078C00602D42046AFF30080099828B1F2
:1008D000D4E901219047206A401C20622078C0069C
:1008E00022D52046AFF300801EE0002E04DBB34586
:1008F00002DD01A8805D00E03020D4E901219047AD
:10090000206A401C2062761CAAF101005FEA000AFE
:100910000AD100F047F8C0680168405CD4E90121C1
:100920009047206A401C2062281EA5F10105DCDCEE
:1009300007E0D4E9012118F8010B9047206A401C18
:100940002062381EA7F10107F3DC2046AFF30080D8
:10095000032011B043E6000001694A1C02610878D7
:10096000704700B58FB0CDE90131002105910549EF
:100970007944CDE9031011466846FFF7EDFC0FB04E
:1009800000BD0000E5FFFFFF0A6802F8010B0A60E6
:100990007047D1E900239A4202D2531C0B601070B9
:1009A0007047000000487047844B002030B5B0F11C
:1009B0000A024FEA900E71F100034EEA817EB0EB1D
:1009C0000E0061EB91014FEA101E4EEA017E10EB22
:1009D0000E0041EB11114FEA102E4EEA016E10EBA2
:1009E0000E0041EB11214FEA104E4EEA014E10EB82
:1009F0000E0041EB1141401841F100014FEAD000D7
:100A000040EA41704FEAD10110EB80054FEA8104C2
:100A100044EA907444EB01046D1944EB0404521B46
:100A2000A3414FF0000348BF0A3200D530BD401C3F
:100A300041F1000130BD00002DE9F0411F460446A0
:100A400003260168072A01F4006004DB08B116A53B
:100A500005E016A503E008B115A500E015A521F0F5
:100A600010002060A069C01EA0610FB1401EA061EF
:100A70002046AFF300804FB1D4E9012138469047BA
:100A8000206A401C2062C01C206206E0206AFAE74F
:100A9000D4E9012115F8010B9047761EF8D22046C3
:100AA000AFF30080BDE8F0814E414E006E616E00F4
:100AB000494E4600696E66002DE9F04781461646AC
:100AC0008AB0334878440DC88DE80D00304878442A
:100AD000801C03AC0DC884E80D0041F69B3008442F
:100AE000372190FBF1F290FBF1F5A5F1800501FBB8
:100AF00012041B3C02D56442012000E00020DFF814
:100B000090A080460027FA44AAF1BE0A0DE0E00753
:100B100009D03246684607EB47010AEB810100F035
:100B200035FB8DE8070064107F1C002CEFD1184FB7
:100B30007F44AC3F18E0E80714D007EB04100DF138
:100B4000180A90E80E008AE80E00C068F04201D151
:100B500098190890324606A903A800F017FB03ABCA
:100B600083E807006D10641C002DE4D1324669460D
:100B7000B8F1000F03A802D000F0F4FA01E000F091
:100B800005FBC9E90001C9F808200AB0BDE8F087F3
:100B9000BC74000000487047644B00207546FFF7A6
:100BA000F9FFAE4605006946534620F0070085462A
:100BB00018B020B5FFF790FBBDE820404FF00006CD
:100BC0004FF000074FF000084FF0000B21F0070135
:100BD000AC46ACE8C009ACE8C009ACE8C009ACE878
:100BE000C0098D4670470446AFF300802046FFF7EA
:100BF00013FB00004FF0013C50F8042B51F8043B6C
:100C00009A4221D1A2EB0C03934313EACC1317D1E0
:100C100050F8042B51F8043B9A4215D1A2EB0C0377
:100C2000934313EACC130BD150F8042B51F8043B37
:100C30009A4209D1A2EB0C03934313EACC13DBD005
:100C40004FF00000704700BFD01A01BAB1FA81F12D
:100C500001F0180122FA01F0CB40C1F12001DBB212
:100C6000C0B2C01A2CFA01F3D11A914311EAC31190
:100C7000E6D1704701491820ABBEFEE7260002000E
:100C800070475FEA400C08BF91F0000F4FEA8C23D9
:100C90004FEAC12243EA51514FEA1C5018BF00F5F8
:100CA000F0404FEA300018BF41F000415FEA6C5C51
:100CB00000F02980BCF1FF3F08BF40F08040704742
:100CC000130C06BF12044FF0100C4FF0000C130E63
:100CD00004BF12020CF1080C130F04BF12010CF137
:100CE000040C930F04BF92000CF1020CD30F04BF4D
:100CF00052000CF1010C11464FF00002A0F11F0050
:100D0000A0EB0C00704711F0004F08BF704731F0A6
:100D100000413FF4D5AF0B0C06BF09044FF0100C97
:100D20004FF0000C0B0E04BF09020CF1080C0B0F66
:100D300004BF09010CF1040C8B0F04BF89000CF1F6
:100D4000020CCB0F04BF49000CF1010CCCF12003C5
:100D5000A0EB0C0022FA03F302FA0CF241EA0301C1
:100D600000F10100704720F07F4C80EA030023F07F
:100D70007F47ACEB070303F57C5300F0004003F121
:100D8000FF032DE980494FEA154B09B44FEA14439C
:100D900025EA0B4E24EA03480FF2042606EB13273C
:100DA00049083E785FEA320203FB0667C7F5000791
:100DB00007FB06F64FEA54374FEAD64606F102061D
:100DC00007FB066CCCF1005C4FEA1C472CEA074C91
:100DD00007FB06F40CFB06F504EB15464FEA9616E6
:100DE00034BF00204FF000404FEAD13706FB07FC2C
:100DF0004FEA1C4C0CFB0BF7D21B03FB0CF761EB0F
:100E000007010CFB0EF7B0EB074072EB17420CFB2F
:100E100008F734BFA2EB0742B2EB074261EB174180
:100E20004FEA0C444FEA910706FB07FC4FEA1C4CC3
:100E30000CFB0BF7B0EBC74072EB573203FB0CF720
:100E400034BFA2EBC742B2EBC74261EB57310CFB98
:100E50000EF7B0EBC70072EB57720CFB08F734BF0C
:100E6000A2EBC702B2EBC70261EB5771039F4FEAD7
:100E7000816141EA921104EBCC044FEAD1374FEA89
:100E8000826206FB07FC42EA90124FEA80604FEA5A
:100E90001C4C0CFB0BF7D21B03FB0CF761EB07019F
:100EA0000CFB0EF7B0EB074072EB17420CFB08F798
:100EB00034BFA2EB0742B2EB074261EB17414FEAA6
:100EC0008C554FEA910704EB9C2406FB07FC4FEA84
:100ED0001C4C0CFB0BF7B0EBC74072EB573203FB1B
:100EE0000CF734BFA2EBC742B2EBC74261EB5731FC
:100EF0000CFB0EF7B0EBC70072EB57720CFB08F758
:100F000034BFA2EBC702B2EBC70261EB577115EB1E
:100F10004C254FEA816141EA92114FEA82624FEA21
:100F2000D13742EA901206FB07FC44F100044FEA75
:100F300080604FEA1C4C0CFB0BF7D21B03FB0CF739
:100F400061EB07010CFB0EF7B0EB074072EB1742A9
:100F50000CFB08F734BFA2EB0742B2EB074261EB90
:100F6000174115EB1C154FEA813141EA92414FEAD6
:100F7000823242EA90424FEA80304FEA0C7644F1E6
:100F8000000448EA03434EEA0B484FF0000EB2EB70
:100F9000080C71EB030724BF624639464EEB0E0E78
:100FA0004FF0000B0018524149414BEB0B0BB2EBD9
:100FB000080C71EB03077BF1000B24BF6246394636
:100FC0004EEB0E0E4FF0000B0018524149414BEB17
:100FD0000B0BB2EB080C71EB03077BF1000B24BF8A
:100FE000624639464EEB0E0E51EA020718BF46F034
:100FF000010616EB0E7655F1000254F1000103D5FF
:10100000BDE88901BDE80088BDE88901BDE8004868
:10101000B619524141EB0101A3F1010370478080F1
:101020007F7E7D7C7B7A7978777676757473727142
:1010300071706F6E6E6D6C6C6B6A6A6968686766FA
:1010400066656464636362616160605F5F5E5E5D8C
:101050005D5C5C5B5B5A5A59595858575756565500
:1010600055555454535352525251515050504F4F62
:101070004F4E4E4D4D4D4C4C4C4B4B4B4A4A4A49B2
:1010800049494848484747474746464645454544F5
:101090004444444343434342424242414141002B82
:1010A00026D4770021D01CB54FEA370703B44FF0A0
:1010B00010004FF010014FF000000FBCBDE81040D1
:1010C0000BF1010BBBF1010F08BF5FEA170722BF4D
:1010D00012F1010211F101014FF0004143F100034F
:1010E00000F0004043EA00007047F9D35708DAE700
:1010F00046EA064613F1400F4FEA16461FDD13F18C
:10110000200FDFBF16430A46002120335B42C8D0C0
:10111000C3F1200746EA064602FA07F74FEA1646E9
:1011200046EA0706C3F1200722FA03F201FA07F79D
:1011300021FA03F14FF0000342EA0702B1E746EA61
:10114000020646EA06464FEA164646EA0106BCBFD4
:1011500046EA0646360C4FF000034FF000024FF00F
:1011600000019EE72DE9C048934630B491E838006D
:1011700007C831EA400C48BF34EA430C03D5FFF7F7
:10118000F2FDFFF78CFFF0BCBDE800882DE9C048F8
:10119000934630B491E8380007C810F0804F08BF7C
:1011A00013F0804F03D100F005F8FFF778FFF0BC93
:1011B000BDE8008820F07F4780EA030023F07F4CE1
:1011C00007EB0C03A3F57C5300F00040A3F1FE03F2
:1011D00092F0000F00F0B38095F0000F00F07780E0
:1011E0002DE901494FEA11404FEA144621EA00482F
:1011F00000FB06FC24EA064708FB06F607FB08F896
:1012000000FB07F718EB06484CEB164C4FEA124B65
:1012100018EB07484FEA15464CEB174022EA0B4EF5
:101220000BFB06FC25EA06470EFB06F607FB0EFE47
:101230000BFB07F71EEB064E4CEB164C4FF000066F
:101240001EEB074E4CEB174B18EB0B0840F1000060
:1012500018EB0E0B58EB000840F100008F1A4FF00E
:1012600000013CBFC943661B14BFB5EB040C002151
:101270003CBFC943F61B4FEA17444EEA8E0E27EADD
:1012800004454FEA1C4704FB07622CEA074C05FBA8
:1012900007F70CFB05F604FB0CFC16EB074642EBCC
:1012A000174216EB0C4642EB1C421BEB060658EBB2
:1012B0000202414146EA9E0601D5BDE80189B61900
:1012C000524141EB0101A3F10103BDE801894FEA5D
:1012D00014454FEA114724EA054621EA074C05FB6D
:1012E00007F406FB07F70CFB06F105FB0CFC11EB02
:1012F000074144EB17444FEA124711EB0C4144EB12
:101300001C4422EA074C05FB07F206FB07F70CFB1F
:1013100006F605FB0CFC16EB074642EB174216EBF4
:101320000C4642EB1C456A1854F1000148BF704757
:10133000B619524141EB0101A3F10103704795F049
:10134000000F37D04FEA11424FEA144721EA024614
:1013500024EA074C02FB07F106FB07F70CFB06F437
:1013600002FB0CFC14EB074441EB17414FEA154715
:1013700014EB0C4441EB1C4125EA074C02FB07F53A
:1013800006FB07F70CFB06F602FB0CFC16EB074608
:1013900045EB174516EB0C4645EB1C42121951F173
:1013A000000148BF7047B619524141EB0101A3F15A
:1013B000010370474FEA14454FEA114724EA0546F6
:1013C00021EA074C05FB07F106FB07F70CFB06F2C9
:1013D0004FF0000605FB0CFC12EB074241EB1741F6
:1013E00012EB0C4251EB1C4148BF7047921841EB85
:1013F0000101A3F101037047FEE7704772B6FEE7F3
:101400001CB507490120CDE900010202002305A116
:10141000064804F0ABFFBDE81C4004F027BF000005
:101420001800002063616F6E696D61002D50000827
:1014300010B590F821100022022905D00421816303
:1014400080F82020012010BD01680B6823F00E03F6
:101450000B6001680B6823F001030B6090F84030CB
:10146000C46B012101FA03F3636080F8211080F856
:101470002020104610BD00002DE9F05F90F82110EB
:101480000024022903D004218163012485E001683E
:101490000A6822F00E020A6001680A6822F001025E
:1014A0000A603F4E3E4FB215DFF8F4C0DFF8F0900F
:1014B000DFF8ECA0DFF8E8B0DFF8E4E00168783F9F
:1014C00013011502ACF1640CA9F15009AAF13C0A10
:1014D000ABF1280BAEF1140E4FF48018B14227D9AE
:1014E000B9420ED0614512D049451DD0514518D0A2
:1014F000594518D0714501D1424615E0294EB142F7
:1015000001D1012210E0274E1436B14201D1102240
:101510000AE0244E2836B14206D0224A3C3291429B
:1015200001D11A4600E02A461E49091F0A602BE035
:10153000B94213D0614517D0494522D051451DD03D
:1015400059451DD0714501D142461AE0B14202D140
:101550004FF0807215E0134EB14201D1012210E02C
:10156000104E1436B14201D110220AE00D4E283639
:10157000B14206D00B4A3C32914201D11A4600E0FA
:101580002A46074980394A60012180F8211000214C
:1015900080F82010416B01B188472046BDE8F09FDC
:1015A000800002400804024070B5044600F014F9BF
:1015B0000546601C02D004480078044400F00CF991
:1015C000401BA042FAD370BD980000202DE9F84FCF
:1015D000DFF8C8910024A9F1040B23460F2709F175
:1015E000040AABF1040ED1E00125A54006EA05028C
:1015F000AA4276D1DFF8A8C14E68A6EB0C08664572
:101600002BD00DDC032E34D005DC36B3012E19D0DF
:10161000022E2FD11BE0112E16D0122E2AD119E046
:10162000B8F5881F19D006DCB8F5803F15D0B8F59D
:10163000801F1FD111E0B8F5001F0ED0B8F5041FB0
:1016400018D10AE0CB6815E0CB681B1D12E0CB680F
:1016500008330FE0CB680C330CE08B682BB1012B07
:101660004FF0080303D0456104E0042302E0056164
:1016700000E00023FF2A01D8064601E000F104063D
:101680004FEA840501D9A5F12005D6F8008007FAB4
:1016900005FC28EA0C0803FA05F548EA0508C6F82F
:1016A00000804D68ED0070D53E4DAE6946F00106F4
:1016B000AE61AD6924F0030605F0010500953A4DD1
:1016C00006EB050CDCF80850A607360F07FA06F8FB
:1016D00025EA0805DFF8D480404503D14FF0000823
:1016E00025E052E0DFF8C880404502D14FF0010804
:1016F0001DE0DFF8C080404502D14FF0020816E03F
:10170000DFF8B480404502D14FF003080FE0DFF866
:10171000AC80404502D14FF0040808E0DFF8A0801B
:10172000404502D14FF0050801E04FF0060808FAE5
:1017300006F848EA0508CCF808804D68D9F800603A
:10174000ED024D4601D5164300E096432E604D68EC
:10175000DAF80060AD02554601D5164300E0964325
:101760002E604D68DBF80060AD035D4601D5164381
:1017700000E096432E604D68DEF80060ED0375468C
:1017800001D5164300E096432E60641C0A68164695
:10179000E2407FF429AFBDE8F88F00000804014063
:1017A000000011100010024000000140000801403C
:1017B000000C0140001001400014014000180140DD
:1017C000001C01408068084000D0012070470AB129
:1017D000016170470904FBE7014880687047000019
:1017E0009800002070B5040025D094F83D00002535
:1017F00020B984F83C50204600F014FB242084F8E3
:101800003D002068016821F0010101602068016845
:1018100041F4004101602068016821F40041016049
:1018200000F056FC4D4A6168914201D84C4900E0F5
:101830004C49884201D2012070BD4B492368B0FB5E
:10184000F1F15E6826F03F060E435E6063689342E6
:1018500006D94FF4967359434FF47A73B1FBF3F101
:101860002368491C1E6A26F03F06314319626168ED
:10187000914210D84900401EB0FBF1F2521CC2F355
:101880000B02042A01D2042022E0B0FBF1F0401C3C
:10189000C0F30B001CE0A268F2B301EBC10303EB41
:1018A0000116431EB3FBF6F35B1C43F480431B0598
:1018B00049D092B301EBC10202EB0111401EB0FB13
:1018C000F1F0401CC0F30B0040F4804040F40040B5
:1018D0002168CA694CF6FF739A431043C861D4E982
:1018E000071001432068026822F0C0021143016022
:1018F000D4E9030101432068826848F2FF339A4328
:1019000011438160D4E9050108432168CA6822F0C7
:10191000FF021043C86001E00EE016E02068016895
:1019200041F0010101602564202084F83D00256319
:1019300084F83E50002070BD01EB4106431EB3FB0E
:10194000F6F35B1CB3E70120C2E701EB4101401E47
:10195000B0FBF1F0401CC0F30B00B7E7A08601001C
:1019600080841E0000093D0040420F002DE9F84F21
:101970001F4690468A460446DDF82890FFF72CFF64
:10198000054694F83D0020287FD1192301224049C3
:101990002046009501F084FB002876D194F83C00A5
:1019A000012872D0012084F83C0020680168C90732
:1019B00003D1016841F0010101602068016821F450
:1019C00000610160212084F83D00102084F83E0071
:1019D00000262664C4F824806785608D20852D4804
:1019E000E0622B464A465146204601F00DFA90B976
:1019F000206841698069009036E02A4649462046C1
:101A000001F02CFC50B1206C042804D1206801683E
:101A100041F4007101600120BDE8F88F606A21681F
:101A200000780861606A401C6062618D491E6185B2
:101A3000218D491E89B2218522685369DB435B07EA
:101A40000BD451B100781061606A401C6062608DF7
:101A5000401E6085208D401E20852A46494620462E
:101A600001F0F2FA0028CED1208D0028C5D154F81B
:101A70003D0B016841F400710160202004F81E094B
:101A8000E67766770020C7E7FFE70220C4E700009B
:101A9000020010000000FFFF2DE9FF4F83B000257A
:101AA000DDE910799A4693460446DDF848800095B2
:101AB000FFF792FE064694F83D0020287CD11923BA
:101AC000012288492046009601F0EAFA0028F5D163
:101AD00094F83C0001286FD0012084F83C00206875
:101AE0000168C90703D1016841F001010160206864
:101AF000016821F400610160222084F83D0040204B
:101B000084F83E0025646762A4F82A90608D2085E1
:101B10007548E062CDE9008653465A46204604994E
:101B200001F0C0F900287CD1208DDFF8C09120277A
:101B300068B1012814D00228206801681ED041F441
:101B4000806101602068416980690090BCE0206884
:101B5000416981690091016841F400710160B3E05D
:101B60002068016821F48061016072B620684169D3
:101B700081690091016841F400710AE041F400615B
:101B8000016072B62068416981690091016821F4A1
:101B90008061016062B697E0032865D801280CD007
:101BA000022843464FF000024946204600960BD0DB
:101BB00001F076FAA8BB0CE091E03246414620469F
:101BC00001F014FB68BB72E001F06AFA48BB72B620
:101BD00033E02068016821F48061016072B62068FA
:101BE0000069616A0870606A401C6062208D401E56
:101BF0002085608D401E60853D4846F2A811006832
:101C0000B0FBF1F0C0EBC00000EB80000090401E84
:101C1000009007D020684069C04340070DD5009868
:101C2000F5E727E044F8305F6773A573206940F05B
:101C30002000206162B625731CE02068016841F431
:101C40000071016020680069616A0870606A401C68
:101C50006062218D491E2185618D491E618562B6B4
:101C600021680969017026E032464146204601F0AC
:101C7000BDFA18B1012007B0BDE8F08F20680069F7
:101C8000616A0870606A401C6062208D401E81B2EB
:101C90002185608D401E608520684269D2435207CD
:101CA00012D4032903D1016821F480610160206806
:101CB0000069616A0870606A401C6062208D401E85
:101CC0002085608D401E6085208D00287FF464AFE4
:101CD00084F83D7084F83E5084F83C50CBE70220F5
:101CE000C9E70000020010000000FFFF040001002F
:101CF000A40000202DE9FF4F83B09A46DDE911973B
:101D000093460446DDF84080FFF766FD054694F8EB
:101D10003D0020287FD1192301224049204600950B
:101D200001F0BEF9002876D194F83C00012872D069
:101D3000012084F83C0020680168C90703D10168CC
:101D400041F0010101602068016821F40061016037
:101D5000212084F83D00402084F83E0000262664BF
:101D6000C4F82480A4F82A90608D20852C48E06275
:101D7000CDE9007553465A462046049901F010F902
:101D800070B930E02A463946204601F067FA58B16A
:101D9000206C042804D12068016841F400710160BE
:101DA000012007B0BDE8F08F606A21680078086103
:101DB000606A401C6062218D491E89B22185628D56
:101DC000521E628522685369DB435B070BD469B1FD
:101DD00000781061606A401C6062208D401E208582
:101DE000608D401E6085208D0028CBD12A46394663
:101DF000204601F029F90028CAD154F83D0B0168AA
:101E000041F400710160202004F81E09E67766772E
:101E10000020C6E7FFE70220C3E700000200100031
:101E20000000FFFF10B586B00021009101910291E2
:101E300003910068104988421BD1104CA06940F002
:101E40000800A061A069694600F0080004904FF402
:101E50004060009012200190032003900848FFF793
:101E6000B5FBE06940F48000E061E06900F48000C7
:101E7000049006B010BD0000005800400010024061
:101E8000000C0140074810B5016841F010010160E5
:101E9000032000F075F80F2000F006F800F024F899
:101EA000002010BD0020024070B50D4D04464FF4D7
:101EB0007A712878B1FBF0F00A490968B1FBF0F0BB
:101EC00000F0DCFA48B9102C07D200222146501E3F
:101ED00000F036F800206C6070BD012070BD00007D
:101EE00098000020A40000200C4808B5816941F04A
:101EF00001018161816901F001010091C16941F035
:101F00008051C161C06900F0805000900448416870
:101F100021F0E06141F00071416008BD0010024015
:101F200000000140002809DB00F01F020121914060
:101F30004009800000F1E020C0F800117047000067
:101F4000F0B40E4B1B680C46C3F30223C3F1070524
:101F5000042D00D90425191D072901D2002300E012
:101F6000DB1E012606FA05F1491E214099409E40DC
:101F7000761E16403143F0BC02F036BB0CED00E09B
:101F8000064900F0070208684FF6FF03184040EAD0
:101F90000220034A10430860704700000CED00E087
:101FA0000000FA052DE9F0470F46050061D0434EC9
:101FB000306800F00700B84209D2306820F007000E
:101FC00038433060306800F00700B84251D12868CB
:101FD0003B4C810712D5400703D5606840F4E060B0
:101FE00060602878000703D5606840F46050606046
:101FF0006068A96820F0F000084360602878C00796
:1020000028D06868012810D02168022810D08907DC
:1020100000292EDA616821F0030101436160FFF7B6
:10202000DBFB804641F288390DE021688903EFE748
:102030008901EDE7FFF7D0FBA0EB0801494502D984
:102040000320BDE8F0876068696800F00C00B0EB21
:10205000810FEFD1306800F00700B8420BD930682B
:1020600020F0070038433060306800F00700B842C5
:1020700001D00120E5E72878400705D56068E968C8
:1020800020F4E060084360602878000706D56068A7
:10209000296920F4605040EAC100606000F038F81F
:1020A0006168084AC1F30311515CC84006490860E1
:1020B00006480068FFF7F8FE0020C2E70020024053
:1020C00000100240446E0008A40000209C00002084
:1020D0000448054900684968044AC1F30221515C7B
:1020E000C8407047A400002000100240546E000851
:1020F0000448054900684968044AC1F3C221515C9B
:10210000C8407047A400002000100240546E000830
:102110000E4A51680E4801F00C03042B11D0082B15
:102120000FD10C48C1F38343C903C05C0AD5516881
:10213000084AC1F34041921E515C054A5043B0FB2E
:10214000F1F0704704494843704700000010024016
:1021500000127A00346E000800093D002DE9F84FA6
:10216000040070D02078C04DC00749D06868C0F323
:102170008100012807D06868C0F38100022809D1D6
:102180006868C00306D52868800339D560680028D0
:10219000E7D035E06068B0F5803F0BD010B1B0F506
:1021A000A02F11D0286820F480302860286820F4FF
:1021B000802002E0286840F480302860606890B198
:1021C000FFF70AFB06460AE0286840F480202860F2
:1021D000F0E700BFFFF700FB801B642873D8286876
:1021E0008003F7D50CE0FFF7F7FA064605E000BFDD
:1021F000FFF7F2FA801B6428F0D828688003F7D430
:1022000020789A4E80074FF001094FF0000839D529
:10221000686810F00C0F07D06868C0F381000228CE
:1022200009D16868C00306D42868800714D52069DE
:10223000012808D110E02069B0B1C6F80090FFF77E
:10224000CBFA074605E00AE1FFF7C6FAC01B0228F1
:10225000C4D828688007F7D52868616920F0F8009D
:1022600040EAC10028600DE0C6F80080FFF7B4FA2C
:10227000074604E0FFF7B0FAC01B022823D82868FD
:102280008007F7D4207800072CD57948A169D9B107
:10229000C0F80090FFF7A0FA074604E0FFF79CFAA9
:1022A000C01B02280FD8686A8007F7D571484FF421
:1022B000FA510068B0FBF1F0009000BF0098411E99
:1022C0000091FAD20EE080E0C0F80080FFF784FAB7
:1022D000074604E0FFF780FAC01B022875D8686A39
:1022E0008007F7D42078400760D5E8690027C00050
:1022F00008D4E86940F08050E861E869012700F0FF
:10230000805000905C480168C90513D40168834679
:1023100041F480710160FFF75FFA824606E000BF7A
:10232000FFF75AFAA0EB0A0064284ED8DBF8000049
:10233000C005F5D5E06801280AD008B1052813D0FA
:10234000286A20F001002862286A20F0040002E0D8
:10235000286A40F001002862E06841F2883B98B1A9
:10236000FFF73AFA82460BE0286A40F00400286240
:10237000EEE700BFFFF730FAA0EB0A0159455AD843
:10238000286A8007F6D50CE0FFF726FA824605E0BA
:10239000FFF722FAA0EB0A0159454CD8286A8007BA
:1023A000F6D41FB1E86920F08050E861E06988B395
:1023B0006968C1F38101022944D00228C6F860800F
:1023C00004D0FFF709FA044638E034E0FFF704FAD6
:1023D000074604E0FFF700FAC01B02282BD8286844
:1023E0008001F7D4206AB0F5803F05D16868A16804
:1023F00020F4003008436860D4E9080108436968A4
:1024000021F4741108436860C6F86090FFF7E4F99E
:10241000044606E025E000BFFFF7DEF9001B0228B6
:1024200009D828688001F7D51BE000BFFFF7D4F971
:10243000001B022802D90320BDE8F88F286880011C
:10244000F4D40EE00128F7D06868226A00F48031E5
:10245000914204D1616A00F47010884201D00120D9
:10246000EAE70020E8E700000010024000004242D6
:1024700080044242A40000200070004010B5401EBD
:10248000B0F1807F01D3012010BD4FF0E0246061E6
:102490000F21601702F0A8F80020A061072020613A
:1024A000002010BD70B590F83C20012A2CD00124EA
:1024B00080F83C40022280F83D2003685A689D68FD
:1024C00022F070060A6832435A60104B02689A4242
:1024D0000ED00F4B9A420BD0B2F1804F08D00D4B6B
:1024E0009A4205D00C4B9A4202D00C4B9A4204D12E
:1024F000496825F080031943916080F83D40002130
:1025000080F83C10084670BD022070BD002C0140D0
:10251000003401400004004000080040000C00406E
:1025200010B5040003D094F83D0010B107E001207D
:1025300010BD002084F83C00204600F01FF8022067
:1025400084F83D00211D206801F0A6FD012084F8DB
:10255000460084F83E0084F83F0084F8400084F888
:10256000410084F8420084F8430084F8440084F871
:10257000450084F83D00002010BD000008B500684B
:102580000649884208D10648816941F400618161A9
:10259000806900F40060009008BD0000002C01403C
:1025A0000010024090F83D10012901D00120704731
:1025B000022180F83D1000680E4988420ED00E4975
:1025C00088420BD0B0F1804F08D00C49884205D02A
:1025D0000B49884202D00B49884204D1816801F03E
:1025E0000701062903D0016841F0010101600020C4
:1025F00070470000002C01400034014000040040FE
:1026000000080040000C004070B5044690F83C0003
:102610000025012817D0012684F83C60022084F8A8
:102620003D002068826822F0770222F47F428260B7
:102630000868502838D00DDC20284FD005DC90B336
:10264000102811D14AE0022070BD302846D0402821
:102650000AD13BE060282FD070280DD0B0F5805F04
:1026600003D0B0F5005F12D0012584F83D60002052
:1026700084F83C00284670BDCB68D1E90121206870
:1026800001F065FD2068816841F0770109E0CB68C1
:10269000D1E90121206801F05AFD2068816841F4E8
:1026A00080418160E1E719E0CA684968206801F06B
:1026B00023FE5021206806E0CA684968206801F0BE
:1026C0002CFE6021206801F04CFDCEE7CA68496805
:1026D000206801F011FE40212068F4E722680146DD
:1026E0001046F0E700B585B00021009101910291FC
:1026F00003911B4B02681B4802219A421BD182693D
:1027000042F0100282618069039100F01000049091
:102710004FF47070CDE9000169461348FEF756FF8B
:102720001248416821F4406141F0E06141F44061A8
:10273000416005B000BD0E4B9A42FAD1826942F069
:10274000080282618069039100F008000490C020B3
:10275000CDE9000169460748FEF738FFE9E70000C8
:102760000004004000100240001001400000014041
:1027700000080040000C014070B5044690F83C0091
:1027800000260D4601280FD0012084F83C006AB1D4
:10279000042A1DD0082A2FD00C2A3FD00126002061
:1027A00084F83C00304670BD022070BD206801F006
:1027B000E1FC2068816941F008018161206881693C
:1027C00021F004018161206881692A69114311E0C7
:1027D000206801F0FFFC2068816941F4006181619B
:1027E0002068816921F480618161206881692A699A
:1027F00041EA02218161D2E7206801F021FD2068D1
:10280000C16941F00801C1612068C16921F004017A
:10281000C1612068C1692A69114311E0206801F093
:1028200043FD2068C16941F40061C1612068C1694C
:1028300021F48061C1612068C1692A6941EA0221ED
:10284000C161ACE710B5040003D094F83D0010B1AD
:1028500007E0012010BD002084F83C00204600F075
:102860001FF8022084F83D00211D206801F014FCAF
:10287000012084F8460084F83E0084F83F0084F884
:10288000400084F8410084F8420084F8430084F852
:10289000440084F8450084F83D00002010BD00008D
:1028A00008B50C4A01680C48914207D1C16941F052
:1028B0000201C161C06900F0020009E0074A9142CB
:1028C00007D1C16941F00401C161C06900F0040091
:1028D000009008BD000400400010024000080040C5
:1028E00010B50446022249B104290ED0082913D09C
:1028F00094F84100012816D0012010BD94F83E0044
:102900000128F9D184F83E200FE094F83F00012817
:10291000F2D184F83F2008E094F840000128EBD180
:1029200084F8402001E084F841200122206801F071
:1029300001FC13492068134A884201D0904203D118
:10294000436C43F400434364206888420DD09042B6
:102950000BD0B0F1804F08D00B49884205D00B490D
:10296000884202D00A49884204D1816801F00701F7
:10297000062903D0016841F001010160002010BD6B
:10298000002C0140003401400004004000080040D9
:10299000000C004070477047F8B5016804460868AD
:1029A000CA684B6910F00F0F4FF000055AD003F0C2
:1029B000010602F49077374365D0C10705D0D105F1
:1029C00003D5616C41F001016164410705D5D90768
:1029D00003D0616C41F002016164810705D5D9071C
:1029E00003D0616C41F004016164010707D502F076
:1029F0002001314303D0616C41F008016164616CD6
:102A000000293BD0800604D5900602D5204601F06F
:102A1000C5FC20684069616CC0F3801001F00801BA
:102A2000014320462BD001F092FC2068406940060B
:102A300021D52068143050E8001F21F0400140E803
:102A40000012002AF5D1E06BA8B16D494163E06B3B
:102A5000FEF712FD002811D0E06B416B01B0BDE81C
:102A6000F040084783060ED593060CD52046BDE8F6
:102A7000F84001F093BC2046FFF78DFFF8BDFFF74B
:102A80008AFF6564F8BD266B2023012E7CD1C60623
:102A90007AD5D60678D508684868009048694FF01E
:102AA0000206400640D5E16B086840680004000C4F
:102AB000E8D0A28D8242E5D9E085886920282DD012
:102AC00020680C3050E8001F21F4807140E80012AB
:102AD000002AF5D12168143151E8000F20F00100DF
:102AE00041E80002002AF5D12068143050E8001FA8
:102AF00021F0400140E80012002AF5D184F842306C
:102B0000256320680C3050E8001F21F0100140E8D8
:102B10000012002AF5D1E06BFEF78AFC6663A08DF7
:102B2000E18D401A81B22AE0A08DE18D401A81B278
:102B3000E08D0028A6D00029A4D022680C3252E8EB
:102B4000000F20F4907042E80007002FF5D12068B4
:102B5000143050E8002F22F0010240E80027002F37
:102B6000F5D184F84230256320680C3050E8002FFE
:102B700022F0100240E80023002BF5D166632046C6
:102B8000FFF708FFF8BDFFE705062BD5150629D589
:102B900094F841002128F5D1A068B0F5805F01D1FB
:102BA0002069B0B1206A411C216221680078486028
:102BB000E08C401E0004000CE084E3D12068C16872
:102BC00021F08001C1602068C16841F04001C1600E
:102BD000D8E7206A0088C0F308004860206A801C9B
:102BE0002062E5E74006CDD55006CBD5CA68204621
:102BF00022F04002CA6084F8413000F0ECF8C1E7EE
:102C00003F43000870B5040004D094F8410000254B
:102C100010B106E0012070BD84F84050204600F05D
:102C200023F8242084F841002068C16821F4005171
:102C3000C160204601F014FC2068016921F4904134
:102C400001612068416921F02A0141612068C16861
:102C500041F40051C1606564202084F8410084F88B
:102C600042006563002070BD70B586B000240094FA
:102C70000194029403942B4E03682B4902200322F3
:102C80002A4DB34229D18B6943F480438B618B6910
:102C900003F4804304938B6943F004038B618969D7
:102CA000039201F0040104910102CDE9001069468C
:102CB0002846FEF78BFC2815CDE900046946284616
:102CC0000294FEF783FC002211462520FFF738F915
:102CD0002520FFF727F906B070BD154EB342FAD193
:102CE000CB6943F40033CB61CB6903F40033049325
:102CF0008B6943F004038B618969039201F004013D
:102D000004910421CDE9001069462846FEF75EFCD7
:102D10000820CDE90004694628460294FEF756FCD7
:102D2000D9E70000003801400010024000080140CF
:102D30000044004070472DE9F843044690F84100F4
:102D4000984616460D46202802D00220BDE8F8839A
:102D500085B17EB100206064212084F84100FEF737
:102D60003BFDA6848146E684A0682027B0F5805FFD
:102D700002D003E00120E9E7206910B12E460025CA
:102D80000EE000260CE08021204601F0C5FBA8B92A
:102D9000C6B116F8010B21684860E08C401EE08443
:102DA000E08C4B464FF00002CDF800800028EAD1BD
:102DB0004FF04001204601F0AFFB40B184F8417074
:102DC0000320C3E735F8020BC0F30800E3E784F8FB
:102DD00041700020BAE77047FEE701684A69D243B4
:102DE00052050FD46FF480624A61002140F8301F11
:102DF000202242738173026942F00402026101736E
:102E00000120704700207047F8B50446C06A1E468E
:102E10000D461746082807D0012805D010F5803F39
:102E200002D0206B122804D12068016841F480711F
:102E30000160134600224FF001112046009600F079
:102E40002FF940B120680068C00502D54FF400702A
:102E500020640320F8BD2069B0F5804F0ED0062015
:102E6000216800EAD51040F0F000086133463A4688
:102E70000B49204600F05CF978B902E005F0FE004D
:102E800000E0E8B221680861054933463A46891FE7
:102E9000204600F04DF90028DCD00120F8BD0000EC
:102EA000080001002DE9F84F0446006889460B9D93
:102EB00001689846174641F4806101602068016806
:102EC00041F48071016000954FF0011B00225946CA
:102ED00020460A9B00F0E4F84FF4007A40B12068E5
:102EE0000068C00501D5C4F840A00320BDE8F88FF4
:102EF000216809F0FE0008612B46284920460A9AFD
:102F000000F016F9F0BB20684169806900902A46FC
:102F100020460A9900F0A2F940B1206C04283AD169
:102F20002068016841F40071016034E0FEB2B8F13C
:102F3000010F09D02168380A08612A4620460A99FB
:102F400000F08CF90028E8D1206806612A46204666
:102F50000A9900F083F90028DFD12068016841F464
:102F60008071016000950022594620460A9B00F0BE
:102F700097F80028B3D1216809F0FF0040F0010064
:102F8000086100E007E02B46044920460A9A00F059
:102F9000CFF80028AAD00120A8E700000200010015
:102FA0002DE9F843044600680D46DDE908970168FD
:102FB0009846164641F4807101604B4600224FF05E
:102FC00001112046009700F06BF848B120680068B6
:102FD000C00502D54FF4007020640320BDE8F883DB
:102FE000216805F0FE0008613B464A461549204627
:102FF00000F09EF888B920684169806900903A46DF
:103000004946204600F02AF948B1206C042804D132
:103010002068016841F4007101600120DEE7F5B22B
:10302000B8F1010F09D02168300A08613A464946D3
:10303000204600F013F90028E7D120680561002040
:10304000CCE700000200010070B516460D460446AC
:103050001EE02046FFF7C1FE08B1012070BD681CCC
:1030600016D0FEF7B9FB801BA84200D885B92068AE
:103070004069C04340070BD5002044F8300F2021A1
:103080006173A073216941F0200121612073E4E79D
:1030900020684069C0434007DBD4002070BD0000B9
:1030A0002DE9F047984617460D460446C1F30746FA
:1030B000DDF820902AE000BFB8F1FF3F26D0FEF7F0
:1030C0008BFBA0EB0901414502D8B8F1000F1DD1DF
:1030D0002068012E16D0806925EA00000004000C4B
:1030E00012D00020B84211D1002044F8300F202126
:1030F0006173A073216941F02001216120730120D7
:10310000BDE8F0874069E7E70120EBE72068012E82
:103110000AD0806925EA00000004000C06D00020D7
:10312000B842C9D00020EBE74069F3E70120F7E798
:103130002DE9F047984616460D4604464FF0000923
:103140004FF0200AC1F3074723E020684069C043DD
:10315000400515D42068016841F4007101602168C0
:103160006FF480604861C4F8309084F83DA084F822
:103170003E90216C41F00401216484F83C9021E0F0
:10318000701C06D0FEF728FBA0EB0800B04203D865
:1031900016B1012F1FD021E02068012F15D08069C2
:1031A00025EA00000004000C18D000BF44F8309F4E
:1031B00084F80DA084F80E90216941F0200121616E
:1031C00084F80C900120BDE8F087406925EA0000F2
:1031D0000004000CEAD12068406901E020688069A1
:1031E00025EA00000004000CAFD1ECE72DE9F04126
:1031F000002590460E460446202728E04069C0433B
:10320000C0060CD454F8301B6FF01000486144F82D
:1032100010596777A577206A2062257714E0FEF7BA
:10322000DBFAA0EB0800B04200D886B920684069FC
:10323000C04340060BD544F8305F6773A57320691F
:1032400040F02000206125730120BDE8F081206856
:103250004169C9434906D1D40020F6E770B5164646
:103260000D4604461EE02046FFF7B7FD08B10120D9
:1032700070BD681C16D0FEF7AFFA801BA84200D8BC
:1032800085B920684069C04300060BD5002044F88A
:10329000300F20216173A073216941F02001216169
:1032A0002073E4E720684069C0430006DBD40020B7
:1032B00070BD10B5029C80E81E0010BD2DE9F041E4
:1032C000884604460168C06803F0F2F90746616861
:1032D00003F0EEF90146384603F05EFA2061A56876
:1032E00006462946404603F0BDFC314603F0B2FBDA
:1032F000294603F0DDF90546A06031464FF07E50C7
:1033000003F0B0FC394603F0A5FBE0602846BDE8B9
:10331000F08100002DE9F04F87B0054600F0A4FAD7
:10332000B5F9000003F036FBFE4CA16C0E4603F02D
:1033300091FB8346B5F9020003F02CFB314603F004
:1033400089FB0190B5F9040003F024FB314603F03A
:1033500081FB0090B5F9060003F01CFB616C0E4682
:1033600003F078FB8046B5F9080003F013FB314603
:1033700003F070FB0746B5F90A0003F00BFB31467A
:1033800003F068FBE84903F093F900990646084604
:1033900003F060FB01998246084603F05BFB81461F
:1033A0005946084603F056FB494603F081F9514659
:1033B00003F07EF96188B1F5C87F06D2491C6180AF
:1033C0004FF08241E162D9490BE0D949D94A014421
:1033D000914203D3D849E162D84902E0D849E16279
:1033E000D8492163D84988427EDD01F049FA8146F7
:1033F0000146584603F02EFB03904946019803F01E
:1034000029FB04904946009803F024FB0290616A6E
:10341000E0698A46814603F01DFB0090A16A206A9C
:103420008B46059003F016FB009903F01BFC01216D
:1034300003F0C1FC01905946504603F00BFB00908D
:103440004846059903F006FB009903F031F9012184
:1034500003F0B1FC59460090084603F0FBFA5146D0
:103460000690084603F0F6FA05998346084603F0ED
:10347000F1FA82464946084603F0ECFA514603F059
:10348000F1FB594603F0EEFB069903F011F9814672
:103490000099029803F0DEFA82464946049803F048
:1034A000D9FA514603F0DEFB05904946039803F034
:1034B000D1FA8146DDE9011003F0CCFA494603F068
:1034C000D1FB02900199049803F0C4FA8146009957
:1034D000039803F0BFFA494603F0C4FB0190206B48
:1034E0000090B0F5000F00E04DE033DB216C059853
:1034F0008B4603F0AFFA616B03F0DAF88146606344
:103500005946029803F0A6FAA16B03F0D1F882465F
:10351000A0635946019803F09DFAE16B03F0C8F8E7
:103520008346E0634946009803F094FA414603F06D
:10353000BFF880465146009803F08CFA394603F0F4
:10354000B7F807465946009803F084FA314603F06D
:10355000AFF80646E06A0599814603F07BFA4146DA
:1035600003F0A6F880464846029903F073FA3946FC
:1035700003F09EF807464846019903F06BFA31467E
:1035800003F096F80646A06A3146049003F062FA0A
:103590008346606A3946039003F05CFA8146206AEC
:1035A0004146824680F0004003F054FA494603F059
:1035B00059FB594603F056FB4FF0FF39494603F0DB
:1035C000FAFB05903946049803F044FA009031461E
:1035D000039803F03FFA8346E0694146029003F006
:1035E00039FA594603F064F8009903F03BFB494669
:1035F00003F0E1FB83464146049803F02BFA019067
:103600003146504603F026FA00903946029803F0FE
:1036100021FA009903F026FB019903F049F8494685
:1036200003F0C9FB01904146039803F013FA80466A
:103630003946504603F00EFA07463146029803F029
:1036400009FA394603F034F8414603F00BFB4946CA
:1036500003F0B1FB216C81460091059803F0FAF963
:10366000029903F025F8E06180465846009903F07E
:10367000F1F9514603F01CF807462062DDE900101D
:1036800003F0E8F9039903F013F860620646484630
:10369000009903F0DFF9049903F00AF80146A062EB
:1036A00003F0D8F982463146084603F0D3F9814643
:1036B0003946084603F0CEF906464146084603F06F
:1036C000C9F9314602F0F4FF494602F0F1FF5146D4
:1036D00002F0EEFFB0F5000F16DB01F0D1F8064660
:1036E0000146E06903F0B6F9E0613146206A03F073
:1036F000B1F920623146606A03F0ACF9606231468C
:10370000A06A03F0A7F9A062616A8846404603F008
:10371000A1F9216A06468946484603F09BF93146DD
:1037200014E00000F0000020FAEDEB3A6F12033BCA
:10373000F628DCC0E37A9400666666406F12833A2E
:103740009A999940A69BC43A0AD7233C02F0B0FF4D
:10375000012103F030FB4FF07E57394603F077FA32
:1037600006464046A16A03F075F980464946E0697D
:1037700003F070F9414602F09BFF012103F01BFBAF
:10378000314600F04FFFDFF8DC80414603F062F97C
:103790006861A16A8946484603F05CF9616A064699
:1037A0008A46504603F056F9314602F081FF012166
:1037B00003F001FB394603F04AFA06464946206AFF
:1037C00003F048F981465146E06903F043F9494660
:1037D00002F06EFF012103F0EEFA314600F022FF05
:1037E000414603F037F9A861A16A8A46504603F0C2
:1037F00031F9616A06468946484603F02BF931469D
:1038000002F056FF012103F0D6FA394603F01FFA01
:1038100006464946206A03F01DF907465146E0690D
:1038200003F018F9394602F043FF012103F0C3FA0F
:10383000314600F0F7FE414603F00CF90646686990
:10384000E16803F00FFA6861A869216903F00AFAD8
:10385000A8613046A16803F005FA286107B0BDE809
:10386000F08F0000E12E654270B504463C2001F067
:103870001BF905463B2001F017F945EA002020809E
:103880003E2001F011F905463D2001F00DF945EA11
:1038900000206080402001F007F905463F2001F03C
:1038A00003F945EA0020A080442001F0FDF8054618
:1038B000432001F0F9F845EA0020E080462001F0BD
:1038C000F3F80546452001F0EFF845EA0020208195
:1038D000482001F0E9F80546472001F0E5F82C49B9
:1038E00045EA00200988401A6081422001F0DCF896
:1038F0000546412001F0D8F845EA0020A081B4F93E
:10390000000003F047F801462248FFF7D7FC03F018
:1039100005F82080B4F9020003F03CF801461D4888
:103920001430FFF7CBFC02F0F9FF6080B4F904001B
:1039300003F030F8014617482830FFF7BFFC02F0CB
:10394000EDFFA080B4F9060003F024F80146114809
:103950003C30FFF7B3FC02F0E1FFE080B4F908006F
:1039600003F018F801460B485030FFF7A7FC02F0AF
:10397000D5FF2081B4F90A0003F00CF80146054890
:103980006430FFF79BFC02F0C9FF608170BD00004E
:10399000F0000020040400202DE9F04104460079E5
:1039A00030B1082807D0102808D018280BD108E01B
:1039B0004FF08D4107E04FF08C4104E04FF08B4118
:1039C00001E04FF08A41E07830B1082806D0102895
:1039D00006D0182807D105E02F4D04E02F4D02E056
:1039E0002F4D00E02F4D4FF07E56304602F0D4FEB2
:1039F0002D4F2946B8642D4802F0CEFE7864802110
:103A00006B2001F067F8642002F0CAFB00216B20F4
:103A100001F060F820884FF47A71884201D3218048
:103A200003E0042801D204202080208802F0CAFF8D
:103A300001461F4802F0B0FE314603F013F902F0D0
:103A400089FFC1B2192001F045F8A179382001F0B1
:103A500041F8A1781A2001F03DF8E1781B2001F02F
:103A600039F821791C2001F035F86179232001F023
:103A700031F86079002100B14021A079C00701D15F
:103A800041F008016A2001F025F8BDE8F04101216C
:103A90006B2001F01FB800000000034300008342C8
:103AA0003333034233338341F000002039FA8E3C34
:103AB00000007A442DE9FE4F3E4E4FF00009706041
:103AC0006420ADF8040006208DF8060010208DF863
:103AD000070008208DF808008DF809908DF80A90ED
:103AE00001A8FFF759FFBDF8040002F06BFF014683
:103AF0004FF07E5A504602F04FFE30644FF4C870CB
:103B000002F04EFBC8270025DFF8ACB02C46B046CB
:103B1000482000F0C9FF0646472000F0C5FF46EAEE
:103B2000002000B205445946D8F8400002F092FF48
:103B300002F092FD02F034FB641CA4B2BC42E7D355
:103B400095FBF7F0A8F800001C4E4C4600233246C7
:103B5000554651461A48CDF80090FFF7AAFB184881
:103B600000233246294614300094FFF7A2FB144884
:103B700000233246294628300094FFF79AFB114E65
:103B80000F480023324629463C300094FFF791FB52
:103B90000B4800233246294650300094FFF789FB3A
:103BA000074800233246294664300094FFF781FB22
:103BB000BDE8FE8FF000002000007A4400002041A4
:103BC00004040020CDCCCC3D70B586B00024204844
:103BD0000094019402940394816941F01001816181
:103BE000816901F010010491816941F02001816136
:103BF000816901F020010491816941F00401816132
:103C0000816901F004010491816941F00801816139
:103C10008069104E00F0080004900022C021304658
:103C2000FDF7D5FD4FF4405001258DE83100694680
:103C30000948FDF7CBFCC020CDE900050220CDE905
:103C4000024069463046FDF7C1FC06B070BD000079
:103C50000010024000080140001001400D4810B55E
:103C60000B4901600C49416000214FF480428160A2
:103C7000C0E9031241618161C1610162FDF7B2FDDA
:103C8000002803D0BDE81040FDF7B8BB10BD000010
:103C9000005800403C020020A086010010B586B00C
:103CA0000024174800940194029403940494134947
:103CB0000594016041F61F41C0E901146321C0E988
:103CC000031444618461FEF72BFC08B1FDF796FBF9
:103CD0004FF48050009069460948FEF795FC08B102
:103CE000FDF78CFB049404A905480594FEF7DAFB64
:103CF000002801D0FDF782FB06B010BD002C01406A
:103D00009002002010B58AB0002407941C21684658
:103D10000894FCF7E9FB2348214901600A21C0E926
:103D2000011441F61F41C0E9031480218161FEF7AF
:103D300089FD08B1FDF762FB079407A919480894AB
:103D4000FEF7B0FB08B1FDF759FB6020CDE9000498
:103D500002940022694613480494FEF70DFD08B151
:103D6000FDF74CFB042269460E48FEF705FD08B13D
:103D7000FDF744FB082269460A48FEF7FDFC08B13E
:103D8000FDF73CFB0C2269460648FEF7F5FC08B13E
:103D9000FDF734FB0348FEF7A5FC0AB010BD000098
:103DA00000040040D802002010B58AB00024079417
:103DB0001C2168460894FCF797FB1B4819490160D1
:103DC0000A21C0E9011441F61F41C0E90314802112
:103DD0008161FEF737FD08B1FDF710FB079407A9D5
:103DE00011480894FEF75EFB08B1FDF707FB602061
:103DF000CDE900040294002269460B480494FEF7C2
:103E0000BBFC08B1FDF7FAFA042269460648FEF742
:103E1000B3FC08B1FDF7F2FA0348FEF763FC0AB001
:103E200010BD000000080040200300200C4810B521
:103E30000A4901604FF4E1314160002181600C22A8
:103E4000C160C0E904128161C161FEF7DBFE002898
:103E500003D0BDE81040FDF7D1BA10BD00380140D5
:103E6000680300200C4810B50A4901604FF4E131A5
:103E70004160002181600C22C160C0E904128161AF
:103E8000C161FEF7BFFE002803D0BDE81040FDF77A
:103E9000B5BA10BD00440040B0030020FEE70000AA
:103EA000144910B50A68002050630A6890630A68D4
:103EB000D0630968086410490A6850630968886318
:103EC00001460C48FEF70CFD04210A48FEF708FDE8
:103ED00008210848FEF704FD0C210648FEF700FD06
:103EE00000210548FEF7FCFCBDE810400421024813
:103EF000FEF7F6BCD802002020030020F0B54FF4F6
:103F0000E154DDE90565A04201DD204602E000281C
:103F100000DA0020A14201DD214602E0002900DA9A
:103F20000021A24201DD224602E0002A00DA00223E
:103F3000A34201DD234602E0002B00DA0023A64263
:103F400001DD264602E0002E00DA0026A54201DD52
:103F5000254602E0002D00DA0025074C276878632B
:103F6000206881632068C263206803640348016895
:103F70004E6300688563F0BDD80200202003002056
:103F8000FEE72DE9F04104461646C06802F06AFEDD
:103F90000546314602F05EFD216902F089FB206191
:103FA000E16902F023FE01D2E0692061E069216944
:103FB00080F0004002F01AFE03D2E06980F0004079
:103FC00020612846616902F04DFE314602F0E4FBB3
:103FD0000146A06802F03EFD07462169606802F0D4
:103FE00039FD06462946206802F034FD314602F0CC
:103FF0005FFB394602F05CFBA061216A02F0F6FD2E
:1040000001D2206AA061206AA16980F0004002F01C
:10401000EDFD03D2206A80F00040A0616561A069D7
:10402000BDE8F08110B502F0CFF9012803D0BDE85A
:10403000104002F085B910BD30B58FB02821684618
:10404000FCF752FA14210AA8FCF74EFA01210804E1
:10405000CDE900100024029402250491CDE9075017
:104060004FF4E01009906846FEF778F808B172B690
:10407000FEE70F20CDE90A054FF48060CDE90C4042
:1040800002210AA80E94FDF78DFF002801D072B618
:10409000FEE70FB030BD7047F0B50268204C214DEF
:1040A000214E224F224B4FF0804CA04209D0984223
:1040B00007D0604505D0A84203D0B04201D0B84235
:1040C00004D122F0700E4A6842EA0E02A04209D0E2
:1040D000984207D0604505D0A84203D0B04201D035
:1040E000B84203D122F44075CA682A434D6922F0D0
:1040F00080022A4302608A68C2620A688262A04221
:1041000001D0984201D1096901630121416101692E
:10411000C90703D0016921F001010161F0BD000070
:10412000002C01400004004000080040000C00404A
:104130000034014010B501F01F030121046A9940C9
:104140008C430462016A9A401143016210BD10B5AC
:10415000846842EA032224F47F440A4322438260B3
:1041600010BD826822F070020A4342F007018160AC
:1041700070470000F0B5036A026A22F00102026291
:1041800042688469124E24F073050C682C4323F0B6
:1041900002058B682B430D4DA84201D0B04205D1DA
:1041A00023F00807CB683B4323F00403A84201D067
:1041B000B04205D14D6922F4407215438A692A4301
:1041C00042608461496841630362F0BD002C014094
:1041D00000340140F0B5026A036A23F01003036261
:1041E000436884690D6824F4E64444EA05248D6834
:1041F00022F0200242EA05120F4D104EA84201D0D3
:10420000B04206D1CF6822F0800242EA071222F0C3
:104210004002A84201D0B04207D14D6923F4406367
:1042200043EA85038D6943EA8503436084614968F5
:1042300081630262F0BD0000002C014000340140A7
:10424000F0B5026A036A23F4807303624368C469A9
:1042500022F4007224F073050C68124E2C438D6812
:1042600042EA05220E4DA84201D0B04206D1CF68E5
:1042700022F4006242EA072222F48062A84201D0BE
:10428000B04207D14D6923F4405343EA05138D69C9
:1042900043EA05134360C4614968C1630262F0BD2B
:1042A000002C01400034014030B5046A026A22F457
:1042B000805202624268C3690D6823F4E64343EA10
:1042C00005238D6824F4005444EA0534084DA842BF
:1042D00002D0084DA84204D14D6922F4804242EA3E
:1042E00085124260C36149680164046230BD000008
:1042F000002C01400034014010B5036A046A24F028
:1043000001040462846924F0F00444EA021423F0F6
:104310000A020A438461026210BD10B5036A046A8E
:1043200024F010040462846923F0A00324F4704490
:1043300044EA023243EA01118261016210BD10B504
:10434000406A0021C185C184FEF725FB10BD0168CC
:104350000C3151E8002F22F4907241E80023002B29
:10436000F5D10168143151E8002F22F0010241E833
:104370000023002BF5D1016B012909D101680C3113
:1043800051E8002F22F0100241E80023002BF5D164
:10439000202180F8421000210163704708B590F891
:1043A0004210222901D0022008BD82684FF48053B8
:1043B0009A4201D1016921B1816A9A421BD04AB166
:1043C0000AE00268816A5268C2F308020A80816AC0
:1043D000891C08E0026972B10268526802F07F022B
:1043E0000A70816A491C8162C18D491E0904090C49
:1043F000C18503D01BE002685268F1E70168CA6812
:1044000022F02002CA600168CA6822F48072CA6081
:1044100001684A6922F001024A61202180F84210B5
:1044200000214163026B012A03D0FEF783FC0020C8
:1044300008BD016301680C3151E8002F22F0100221
:1044400041E80023002BF5D101680A68D20602D5A5
:104450000A6849680091818DFEF79CFAE7E7000041
:1044600070B5044600680169E26821F440511143C7
:1044700001612169A0680843616908432168CA682D
:1044800041F20C639A430243CA6020684169A26901
:1044900021F44071114341611E492068884202D1D4
:1044A000FDF726FE01E0FDF713FE00EBC00101EB76
:1044B0000012606864218000B2FBF0F3B3FBF1F3FB
:1044C0006FF018067343B2FBF0F5B2FBF0F605EBA4
:1044D0008305322303EB0515B5FBF1F5B6FBF1F6C9
:1044E00005F0F00505EB0615B2FBF0F6B2FBF0F0B7
:1044F000B0FBF1F06FF01802504306EB800003EBC5
:104500000010B0FBF1F0216800F00F002844886033
:1045100070BD0000003801402DE9F8439846174669
:104520000D460446089E24E0701C22D0FDF754F985
:10453000A0EB0800B0421AD8CEB12068C168490784
:1045400017D5802D15D0402D13D00168C943090718
:104550000FD401680025406800902046FFF7F7FE61
:104560000820606484F840500120BDE8F8830320EF
:10457000FBE72068006835EA000004D00020B8425C
:10458000D2D00020F1E70120F9E700000148FEF752
:1045900003BA000068030020FEE7490050EAC1208A
:1045A00018BF04204A0D18BF40F0010040F2FF720E
:1045B000B2EB515F08BF40F00200012808BF0520A0
:1045C00070474100080218BF04200A0E18BF40F0CF
:1045D00001004FF07F4232EA010108BF40F00200C3
:1045E000012808BF052070470907090E002804DBD1
:1045F00000F1E02080F80014704700F00F0000F197
:10460000E02080F8141D704702F052B86FF05E0190
:10461000080702F0D0BB30380A2801D201207047C9
:10462000002070472DE9F0474FF0684202EB40034D
:104630000C460546B3F1654F3CBF02EB4102B2F1B7
:10464000654F7CD2C0F3C753C1F3C7529A1A1B2AD5
:1046500006DD10F0004F14BF76487748BDE8F087BC
:1046600012F11A0F17DA11F0004F06D010F0004FB8
:104670000CBF72487248BDE8F0872146284602F018
:104680008BF80446FFF79DFF042808BFFFF7BEFF25
:104690002046BDE8F0874200B2EB410F25D910F06B
:1046A000004F19BF674F684E684F694E224685F02C
:1046B000004415460A4680F0004110460A1A52008E
:1046C000B2F1807F40D248406249DFF88CA110F0FF
:1046D000004F18D04FF03F48384602F0C3FA074663
:1046E0005146304602F0BEFA17E011F0004F04BF09
:1046F00000263746E2D010F0004F19BF574F584EF2
:10470000584F594EDAE74FF07C58384601F0D0FF49
:1047100007465146304601F0CBFF06464146284643
:1047200002F098F9214601F0C3FF82462146404637
:1047300002F090F9294602F08AFA514600E037E08B
:1047400002F02AF8044604E02146284602F024F844
:104750000446014602F07EF98046444902F07AF9A7
:10476000434901F0A5FF414602F074F9414901F0C7
:104770009FFF414602F06EF93F4901F099FF414623
:1047800002F068F93D4901F093FF05464146204695
:1047900002F060F9294602F05DF9314601F088FF28
:1047A000214601F085FF3946BDE8F04701F080BFA2
:1047B0004FF07F42B2EB400F28BFB2EB410F03D264
:1047C000BDE8F047FFF720BF40EA01035B0008BFE8
:1047D00044F0FF410AD0B2EB400F08BFB2EB410FEB
:1047E00006D125F0804024F0804105460C4629E79B
:1047F000B2EB400F12BF5FEA410245F0FF4004F008
:1048000000413FF41FAF4A0092EA40033FF51AAF60
:10481000002AACBF4FF09F464FF03E56314602F0A3
:1048200019F905463146204602F014F90446284697
:10483000214607E7DB0FC9BFDB0FC93FDB0F49404C
:10484000DB0F49C00000C9BF22AAFDB90000C93F63
:1048500022AAFD390060ED3EC30ACE37000049C0F0
:1048600022AA7DBA0000494022AA7D3A2DAD65BD3D
:104870008FB8D53D0FB511BE61C84C3EA8AAAABEDF
:1048800010B504464FF0FF3102F095FA0849A1EB4C
:104890006404214602F0DEF8214602F0DBF84FF016
:1048A0007F5102F0D4F92146BDE8104002F0D2B8A1
:1048B000DF59375F2DE9F0473A4D374C3A4F2878AA
:1048C0002146A278DFF8D480DFF8D49000EB4000D6
:1048D0000026097A07EB8000022A02D0012A07D0BD
:1048E00001E0022902D0012910D014E0807908E00B
:1048F000012905D04078287000F0CCF8A6700DE0B2
:104900004079287000F0C6F8A67042E080782870E0
:1049100000F0C0F82672A078022812D0207A02286F
:104920002AD1287800EB400007EB8000007928703E
:1049300000F0B0F8287800EB400017F82000E8B14C
:1049400027E0287800EB400007EB8000C078287053
:1049500000F0A0F8287800EB400017F8200050B9CC
:10496000D8F8001045460120C9F80010FCF71CFEDD
:1049700028680B382860A670BDE8F087D8F80010CA
:1049800045460120C9F80010FCF70EFE28680B30E0
:1049900028602672F0E70000F8030020C80000201D
:1049A000CC000020A80000205C6E00082DE9F0413A
:1049B000224D4FF480512846FCF704FF204C691427
:1049C00060702846FCF7FEFE00210123E0710A46D4
:1049D0005FF0020501EB410014F8106026B1012ED2
:1049E0000AD0022E24D111E004EB40067778FFB9FB
:1049F00004F81030B2801BE004EB4006767816B164
:104A000004F8102014E004F8105011E004EB400604
:104A10007778012F09D1B788462F03D204F81020E8
:104A2000B37002E0B57004F81020B088401CB0806C
:104A3000491CC9B20229CDD3BDE8F0810010014064
:104A4000F8030020FDF71EFA0D4B0E4A0E490F48E1
:104A500000F090FDFFF7F0FAFFF7B6F8FFF752F914
:104A6000FFF7FCF8FFF7A0F9FFF7E0F9FFF7FAF915
:104A7000FFF714F90648FDF795FDFCF7C1FCFEE7CA
:104A8000855B0008115D0008307E0008A801002049
:104A90009002002003480178052901D3002101700C
:104AA00070470000A80000201FB500218DF80C10F1
:104AB000C823012203A98DE80E00134602460448CC
:104AC000D0214068FCF7E8FF9DF80C0004B010BD51
:104AD000F00000201FB5C8238DF80C10012203A997
:104AE0008DE80E00134602460248D0214068FDF7CB
:104AF00001F91FBDF000002070B52E4898B0006885
:104B000001F0AAFDCDE900012BA2182102A8FBF7B4
:104B100009FC2D48006801F09FFDCDE900012BA2A2
:104B2000182108A8FBF7FEFB2D48006801F094FD52
:104B3000CDE900012BA218210EA8FBF7F3FB2D48AD
:104B400000F0ECFB2C492B4800F0CBFC02AB0A2216
:104B50000021284800F09CFC08AB142200212548C5
:104B600000F096FC0EAB1E220021224800F090FCC3
:104B7000204800F0ADFC00240C26204D0BE000BFC7
:104B800004EB8400C01C81B204230F221948009654
:104B900000F0CDFB641C68688442F1D314AB1B2287
:104BA0002E21144800F074FC124800F091FC18B05B
:104BB00070BD00000C0000205265616C5F79617768
:104BC0003A20252E32660000080000205265616CF4
:104BD0005F70697463683A20252E32660000000019
:104BE000040000205265616C5F726F6C6C3A202586
:104BF0002E326600A8010020986E0008A800002050
:104C000010B5094800F08AFB0849074800F069FC24
:104C100007A30F220021044800F03AFCBDE8104031
:104C2000014800F055BC0000A8010020687600088B
:104C30003200000010B5064800F070FB054904483A
:104C400000F04FFCBDE81040014800F041BC0000FE
:104C5000A8010020687600082DE9F0411E4C0F469F
:104C60000546E6682068001D01F00EFA38B9206894
:104C700090F82C1001208840216981432161681C33
:104C800015D1A7B1154922684868906023688268E9
:104C9000DA6022688368121D5A602268121D8260E1
:104CA000206841610868401C0860BDE8F081206808
:104CB0003544B5424560216805D2E06BBDE8F0415E
:104CC000091D01F002BAA06B091D01F0FEF9A06AEE
:104CD0008542EAD2A562E8E73C01002030050020C9
:104CE0002DE9F041054601F015FA364CA068401C4C
:104CF000A0602068344F10B1606940B32DE025609A
:104D0000A068012829D1002606EB860007EB800069
:104D100001F0CDF9761C052EF6D32B48643001F056
:104D2000C6F92948783001F0C2F927488C3001F0E3
:104D3000BEF92548A03001F0BAF92348B43001F09B
:104D4000B6F921486430A0631430E06305E02068C0
:104D5000E96AC06A884200D82560606A0121401C67
:104D60006062E86A226981401143216100EB8000A2
:104D700007EB80004068A8608168E9608268291DAF
:104D800051608160E86A00EB800007EB8001696197
:104D900057F82010491C47F8201001F0C9F9606944
:104DA00000280CD02068E96AC06A884207D2074907
:104DB0004FF080500860BFF34F8FBFF36F8FBDE897
:104DC000F08100003C0100207C04002004ED00E0A4
:104DD00010B50446006B01F0B5F92046BDE810405F
:104DE00001F0B0B90E484FF48841420706D0C01D0B
:104DF0000B4920F00700411AC1F58841094A0023F8
:104E00000144C2E900030839143A21F00701116096
:104E10004B600B600B1AC0E900139360536070473E
:104E20004405002090010020144E154CA6F1A00767
:104E30004FF08058DFF84C9012E000BF01F06AF9A3
:104E4000F068C568281D01F01FF9A068401EA06029
:104E50006068401E606001F06BF92846FFF7B8FFFC
:104E600060680028EAD138680128F9D9C9F80080BB
:104E7000BFF34F8FBFF36F8FF2E700001C050020D8
:104E80003C01002004ED00E02DE9F0479946DDE902
:104E9000096480466FF00303206B03EB8202089DD8
:104EA000104420F0070761B1002023180A5C83F842
:104EB00034200A5C12B1401C1028F6D3002084F87C
:104EC0004300052D00D30425201DE56201F0FAF80A
:104ED00004F1180001F0F6F82461C5F105006462E0
:104EE000A0614A464146384600F08EF82060002E08
:104EF00000D03460BDE8F08730B5114900E01146BC
:104F00000A688242FBD34B685C18844203D1406834
:104F100018444860084643681C18944209D1084C5C
:104F2000143C2468A24209D052681A4442600A68BC
:104F300012680260814200D0086030BD0460F9E769
:104F4000900100200548816B096821B1816BC96817
:104F50000968816270474FF0FF31FAE73C01002099
:104F6000BF2080F31188BFF34F8FBFF36F8FFEE731
:104F700070B50446002601F0A1F9224D286808B951
:104F8000FFF730FFCCB304F00700C0F11000C143BD
:104F90008C4232D8211800292FDD686881422CD834
:104FA000184814300246146801E02046144662682E
:104FB0008A4202D22268002AF7D12A6894421CD081
:104FC00006682268026060680836421A102A04D90E
:104FD000601842606160FFF78FFF61686868401A7F
:104FE0006860AA68904200D2A86041F0004060600A
:104FF00000202060E868401CE86001F085FA304637
:1050000070BD00007C01002010B5031F4FF08074BC
:105010001C601B1F21F001011960191F024B0B605E
:10502000143940380A6010BD614F00087CB5012476
:1050300016482502CDE9004000232A4614A11E4847
:1050400001F094F911480023001DCDE900402A46E3
:105050001AA1204801F08AF90C4800230830CDE954
:10506000004062021CA11E4801F080F9074800239D
:105070000C30CDE9004080221AA11C4801F076F9DD
:10508000BDE87C40002001F0A3B800001C00002017
:105090004745545F4D5055363035305F444154419B
:1050A0005F414E445F545245414E534D49545F3227
:1050B0005F55415253540000F15000084D4F544F7A
:1050C000525F4452495645525F414E445F504944F5
:1050D00000000000755100087461736B330000001C
:1050E000815200087461736B34000000AD520008F7
:1050F000A6B01848FEF7DEFC174C1DA8FEF70AF90B
:105100002198E060229880F00040A06023986060C1
:10511000606801F0A1FA07468846A06801F09CFA91
:1051200005460E46E06801F097FA8DE8E0010B466F
:1051300002460AA104A8FBF7E1F804A8FBF793F9DB
:1051400082B20A2304A90A48FDF7F5FD052001F003
:1051500027F8D2E73C02002000000020252E33660D
:105160002C252E33662C252E33662C0A00000000D9
:10517000680300201CB5FEF793FE3F490020C8607D
:105180003D4C2C3C606940B941F6583001F008F8BC
:1051900040F6C410206101206061384D61682A46E4
:1051A0003548FEF7EEFEE16806462A4632482430CE
:1051B000FEF7E7FE0090A1682A462F484830FEF728
:1051C000E0FE80466069012803D0606920B1206953
:1051D00004E04FF47A7000E06420206101F0DAFB13
:1051E0000546314601F03EFD8346009901F03AFD47
:1051F0000446414601F05CFA01F090FB81462046EE
:10520000414601F02FFD01F089FB04462846314656
:1052100001F04EFA8246009901F04AFA05464146ED
:1052200001F046FA01F07AFB07462846414601F0B4
:1052300019FD01F073FB06465846009901F038FA53
:10524000414601F00FFD01F069FB0546504600990B
:1052500001F008FD414601F005FD01F05FFBCDE9DD
:10526000005033463A4621464846FEF747FE0A209C
:1052700000F096FF84E700002C0000200AD7233CB2
:10528000084D094C2868416A2068091A0A2905D383
:105290000A302060FFF78AFBFFF70CFBC82000F004
:1052A0007FFFEFE790020020000000200A2000F0BE
:1052B00077FFFBE710B5094800F030F808490748C8
:1052C00000F00FF907A30F220021044800F0E0F8D6
:1052D000BDE81040014800F0FBB80000A801002024
:1052E000687600083500000010B5094800F016F88F
:1052F0000849074800F0F5F807A30F2200210448E9
:1053000000F0C6F8BDE81040014800F0E1B8000028
:10531000A8010020687600083600000001680A7CB9
:1053200090F83810406B5143C900FBF7BBB82DE92A
:10533000F8438146089C1E46101980B200908819D7
:1053400083B215468846484600F0AAF800280ED0D9
:105350000027002C0BD033462A464146484600978A
:1053600000F040F86D1C641EADB2A4B2F1E7BDE8D8
:10537000F8832DE9F041044690F870001F46154669
:105380000E4630B1012809D002280CD0032815D1CF
:105390000FE0E16D20468847284408E0E16D204693
:1053A0008847301A09E0E16D20468847281A85B2FF
:1053B00004E0E16D20468847304486B22846A4F8D0
:1053C0006460A4F8660039460025204600F0C8FA5B
:1053D000010003D0204600F0F3F985B22846BDE86D
:1053E000F08100003FB581B0044690F88C00089928
:1053F00000283AD0BDF81000002836D0012811D975
:10540000022902D0032907D00CE0BDF80820101AA9
:10541000401CADF8080005E0BDF80C20101A401C37
:10542000ADF80C0011F0010521D0B4F84810BDF81A
:105430000800814219D8B4F84A10814215D9B4F84D
:105440004E30B4F84C2004A90DF10C0000F02AF9FC
:1054500000280AD00095206BBDF81030BDF80C2054
:105460008568BDF808102046A84705B030BDB4F8DF
:105470004C10BDF80C008142F7D8B4F84E108142B0
:10548000F3D9B4F84A30B4F8482004A902A8DDE7FB
:1054900030B4024C446030BC00F031B9D55C000837
:1054A00070B50D461E460446B0F84E10B0F84C00DC
:1054B000049B00F0B2FA002809D0B4F84A10B4F8FE
:1054C000480033462A46BDE8704000F0A6BA70BDD9
:1054D00010B5044600F02FFB2046BDE8104000F058
:1054E000C6BB10B50446806D884209D004F1740033
:1054F000A16500F0EBFA2046BDE8104000F056B878
:1055000010BD00000149C1657047000075570008D3
:105510000021A0F85010A0F854104FF6FF71A0F829
:105520005210A0F85610016B4968084770B5044640
:1055300000250498A565E362616384F8382084F847
:10554000395084F86D5084F8915084F88D500121C1
:1055500084F8921084F893102063016820468847ED
:105560002046FFF7D5FF2046FFF7CCFF84F87050A8
:1055700070BD00007CB50C46009313460546084AF2
:10558000084900F07CFB01A800F09AFA0146064B9E
:1055900000949DF804202846FFF7C8FF7CBD00005A
:1055A0002D5E000829600008335A000810B5816D8F
:1055B00000291AD090F9813080F88E3090F982203D
:1055C00080F88F2090F88D1000290ED001290DD081
:1055D00090F97E4090F980100C449C4201DD80F8E7
:1055E0008E408A4201DD80F88F1010BD90F9831043
:1055F0008B4201DA80F88E1090F98410F1E72BB11C
:10560000012B05D0022B06D0104402E0084400E034
:10561000801A80B27047401AFBE72BB1012B05D0EE
:10562000022B06D0401A02E0104400E0084480B289
:105630007047801AFBE738B50446B0F85600009072
:10564000B4F85230B4F85420B4F850102046FFF7A4
:1056500027FF18B3012084F88C00B4F84810B4F880
:105660005000814201D2A4F84800B4F84A10B4F8BE
:105670005200814201D9A4F84A00B4F84C10B4F8A1
:105680005400814201D2A4F84C00B4F84E10B4F892
:105690005600814201D9A4F84E0038BD002084F89C
:1056A0008C0038BD30B504880D882544ADB2AC42BD
:1056B00005D99C4202D25D1EADB200E014469C4268
:1056C00001D2954201D8002030BD944200D2144648
:1056D0009D4200D91D460480281B0880012030BD52
:1056E00038B5C58F049C0094521BC46A92B2A0477F
:1056F00038BD38B5049C0094FFF7F2FF38BD2DE9A2
:10570000F0471C4691468846064600F0B9FC002545
:105710004FF6FF7772682178304690470346B842CB
:1057200025D0641CA3F57F40FE38F3D04A4641469D
:105730003046FFF71EFE96F8701031B1012907D0F0
:10574000022908D003290FD10AE008EB000104E088
:1057500009EB000106E0A8EB00011FFA81F803E065
:10576000A9EB00011FFA81F9284485B2D2E7284647
:10577000BDE8F0870020704710B50C4600F006F831
:105780000122641EA240801A40B210BD30B50568E7
:10579000047B2A78E2406318DBB2082B09D36D1C26
:1057A00005602D78C4F10804A5401543083BEAB212
:1057B000DBB201248C40641E14400373204630BDCC
:1057C0002DE9F843054600F1600400F00CF915F9E5
:1057D0006B6F2046E97BFFF7CFFF8146297C20468F
:1057E000FFF7CAFF0746697C20466B3DFFF7C4FF01
:1057F000804694F90A00002857DDF019404247B26C
:10580000237CA0883A464946FFF7F9FEA080237C16
:105810003A46E0884946FFF700FFE080A188277CF0
:1058200002460B4637B1012F0AD0022F40D0032F7A
:105830000FD146E094F90A7030443B449BB207E034
:10584000891B491C94F90A705B1C89B29BB23844CD
:1058500080B200902846FFF723FE30B3002020726C
:1058600084F8090095F876102046FFF78FFF8146EF
:1058700095F877102046FFF789FF07460022494632
:10588000284600F027F801223946284600F022F881
:1058900001212046FFF77AFF0028EFD194F9090093
:1058A000B042DFDBA07B85F892004046BDE8F8837C
:1058B00094F90A705B1CC91B491C89B29BB2921BEC
:1058C00004E094F90A7033449BB2D21B521C92B28A
:1058D000401CBDE72DE9F74F84B00D46049C94F8B9
:1058E000687094F869806034A07AC01BC6B20196D3
:1058F000B54200D201954FFA88F279B2A088B4F887
:1059000006B0237C92468946FFF779FE0290237CFD
:10591000524649465846FFF780FE0246069808B1AF
:10592000A17B02E0607B50B9E17B049880F8921083
:10593000207C0090DDE901310498FFF753FDB5426A
:1059400007D3A81BC5B208F10100002700F0FF082B
:10595000CAE77819207284F8098007B0BDE8F08F93
:1059600070B50D460146806D1730FF2D10D8612DA2
:1059700002D3B1F8881003E0412D02D3B1F88610AC
:105980000844417819B30278AA42F9D1801C70BD4D
:10599000B1F88A100C1826460021304600F019F89C
:1059A00004440221304600F014F8361DA842F3D317
:1059B0004FF6FF72207802EA00216078084306D093
:1059C000A84201D1E01C70BDA0780444F2E7002099
:1059D00070BD08444FF6FF720178407802EA012159
:1059E000084480B2704730B5054600F16004016696
:1059F0000020207315F8781F2046FFF7C7FEA0721D
:105A000069782046FFF7C2FEE072A87EA07310B14D
:105A10000020E07330BD0120FBE78A4205D28342BB
:105A200001D89A4203D9012070478342F9D8002057
:105A30007047F0B502F007060124B440002590F845
:105A400092E0E7B2DDF814C02C46BEF1010F01D898
:105A50003D4600D03C46076822F00702BCF1000F2B
:105A60003F7C07FB02F7BAB2476B3A44114409D1B5
:105A700008785B1E284360401B0401F8010B1B0CD7
:105A8000F6D1F0BD0A78761C2A436240A3F10103E7
:105A90000A7016F007069BB206D06A06150E62065B
:105AA000140E002BEED1F0BD428F114490F89220DD
:105AB000012A02D84FF00105F3D04FF00104F0E7BE
:105AC00004210170004870474449002070B5054624
:105AD00008782870487868708878A870C878E87066
