:020000040800F2
:10000000180B00203D0200084D2A0008AF20000810
:10001000B1290008D71D000835390008000000008C
:100020000000000000000000000000009132000805
:100030000D1F00080000000031300008C93400081E
:10004000570200085702000857020008570200082C
:10005000570200085702000857020008570200081C
:10006000570200085702000857020008570200080C
:1000700057020008570200085702000857020008FC
:1000800057020008570200085702000857020008EC
:1000900057020008570200085702000857020008DC
:1000A00057020008570200085702000857020008CC
:1000B000570200082D3500085702000857020008B3
:1000C00057020008570200085702000857020008AC
:1000D0005702000845370008570200085702000879
:1000E00057020008570200085702000800F002F803
:1000F00000F094F80AA090E8000C82448344AAF12E
:100100000107DA4501D100F089F8AFF2090EBAE82B
:100110000F0013F0010F18BFFB1A43F0010318473B
:10012000BC5A0000DC5A0000103A24BF78C878C1DD
:10013000FAD8520724BF30C830C144BF04680C60ED
:10014000704700000023002400250026103A28BF35
:1001500078C1FBD8520728BF30C148BF0B60704739
:100160006E2900F0D983702900F07981662904F0A6
:10017000A087652904F09D87672904F09A87612983
:1001800004F0998703681B0A28BF41F080016929A0
:1001900000F0EA80642900F0E780752900F0E4802F
:1001A0006F2900F0CA86782900F04581E92900F01E
:1001B0006586E42900F06286F52900F05F86EF2964
:1001C00000F0C786F82900F044810368DB0928BFE6
:1001D00041F08001632901F0FB80732901F0008167
:1001E000E32901F00B81F32901F010810020704711
:1001F0001FB59DE8030000F093FA00F0B9FE04007B
:100200000020002103F0B4FE401C606000200021AB
:1002100003F098FEE0601FBD10B510BD01F097F926
:100220001146FFF7E5FF03F0E9FD01F0BDF903B466
:10023000FFF7F2FF03BC03F0FCFB00000948804716
:1002400009480047FEE7FEE7FEE7FEE7FEE7FEE7B8
:10025000FEE7FEE7FEE7FEE704480549054A064BD0
:1002600070470000CD340008ED000008180500209C
:10027000180B00201807002018070020704770B5E1
:10028000064600F031FA056806F10B0020F007047D
:10029000B4429CBF002070BD2B466A68BAB110689A
:1002A000A04210D304F1080188423CBF5068586056
:1002B00007D35168101941601168091B016058602B
:1002C0001460101D70BD13465268002AE7D1214604
:1002D000284600F011FA0028DED170BD1CB50C468E
:1002E000064B7B4469460090204600F03EFD0446E4
:1002F0000020694600F04CFD20461CBDAB0A000002
:100300000FB4044910B503AA029800F047FD10BCD1
:100310005DF814FB5000002070B504468569006844
:10032000C10601D5302600E02026C00707D070BDE9
:10033000D4E9012130469047206A401C20626D1E9E
:10034000F6D570BD70B5044685690078C00707D141
:1003500070BDD4E9012120209047206A401C206212
:100360006D1EF6D570BD00002DE9F0410646002453
:1003700010687529314616A510D000F039FA00280A
:1003800002DA404213A507E031688A0701D512A5B9
:1003900002E0490704D511A5012401E000F031FA7B
:1003A00000210A2206F1240709E0B0FBF2FCB0FBB1
:1003B000F2F302FB1C00303078541846491C002828
:1003C000F3D123462A463046BDE8F04100F04BBA4F
:1003D000000000002D0000002B00000020000000A5
:1003E000F0B40D460188090502D5214C7C4402E099
:1003F0001F4C7C440E34002100F1240608E002F07A
:100400000F071209E75D42EA03721B097754491C82
:1004100052EA0307F3D102780023120704D5702DA6
:1004200006D009B1022311342246F0BC00F01BBAF9
:1004300001231034F8E770B504460D4621461068D4
:1004400000F0DFF9024629462046BDE8704000234F
:10045000C6E7D21D22F00703D3E90023C0E70368F3
:10046000126843F0200303600823C3610023B7E749
:100470004E5600002DE9F05F894604464FF0000A11
:10048000DFF874B1FB44C0F820A02046E16888473B
:10049000002874D0252806D0D4E901219047206A8D
:1004A000401C2062F1E700265F462046E16888474D
:1004B0002028054607DB312D05D2781910F8200CCD
:1004C00008B10643F1E7B00701D526F00406C4F8E9
:1004D0001CA00027C4F818A02A2D09D0284603F034
:1004E000A1FA38B304EB8708303DC8F8185019E07A
:1004F00059F8041B204604EB87029161E1688847A4
:10050000012F054618D1E069002820DA26F02006E0
:100510001DE0D8F8180000EB800005EB40003038F3
:10052000C8F818002046E1688847054603F07AFAC3
:100530000028EED1012F0AD02E2D08D12046E168E7
:1005400088477F1C0546022F46F02006C4DBA069C1
:10055000002803DA404246F00106A061F00701D00E
:1005600026F010066C2D0BD0682D09D04C2D39D0FB
:100570006A2D35D0742D35D07A2D33D016E038E081
:10058000E1682F4620468847B842054609D16C2FBE
:1005900026D04FF48060E168064320468847054630
:1005A00004E06C2F1AD04FF4807006430DB3A5F110
:1005B0004100192802D8203546F400664A462946EB
:1005C000204626604E46FFF7CBFD80B101280BD0B8
:1005D000F61D26F0070000F1080956E74020E4E781
:1005E0008020D8E70020D6E706F104094DE7284629
:1005F00052E7206ABDE8F09FDE55000010B5203AB2
:10060000C0F00B80B1E81850203AA0E81850B1E8CB
:100610001850A0E81850BFF4F5AF5FEA027C24BF81
:10062000B1E81850A0E8185044BF18C918C0BDE878
:1006300010405FEA827C24BF51F8043B40F8043B41
:1006400008BF7047D20728BF31F8023B48BF11F8F6
:10065000012B28BF20F8023B48BF00F8012B704750
:100660004FF0013C50F8042B51F8043B9A4221D141
:10067000A2EB0C03934313EACC1317D150F8042BCD
:1006800051F8043B9A4215D1A2EB0C03934313EAB1
:10069000CC130BD150F8042B51F8043B9A4209D1EA
:1006A000A2EB0C03934313EACC13DBD04FF0000012
:1006B000704700BFD01A01BAB1FA81F101F01801F8
:1006C00022FA01F0CB40C1F12001DBB2C0B2C01A66
:1006D0002CFA01F3D11A914311EAC311E6D1704704
:1006E000704770477047704700487047C00400204B
:1006F000704770477047704738B504460A46002077
:100700006946AFF30080002808BF38BD0246009953
:10071000204600F035FC012038BD012000F010BF5C
:10072000F8B5AFF30080054600200C46102000BF4E
:100730000646A819A0420DD9324669460020AFF3FB
:100740000080070008BF00F0FBFE0098A04218BF21
:100750000546C419FFF7C8FF05600746F01D20F0E5
:1007600007004619284600F00AF8B44208BFF8BD51
:10077000A21B31463868BDE8F84000F001BC0021FA
:100780000160C0E9011070471020704770B5044641
:10079000051FFFF7A9FF0068002C14BF446870BD57
:1007A000002C18BFAC423CBF20466468F8D30168F7
:1007B0000A18AA4218BF456003D12A6805461144A9
:1007C000016028684119A1421CBF6C6070BD61685E
:1007D000696021680844286070BD10B500F0CCFB4A
:1007E000006810BD10B5044600F0C6FB046010BDE3
:1007F00009684A0501D540B27047C905FCD500B269
:10080000704709684A0501D5C0B27047C905FCD5D3
:1008100080B2704770B50C460546012A05D028788D
:10082000800600D5EA69002302E0012305E05B1C95
:10083000934202D2E05C0028F9D1A869E618C01AF8
:10084000A861286A184428622846FFF765FD04E07D
:10085000D5E9012114F8010B9047B442F8D328469A
:10086000FFF770FD70BD2DE9F0470D4699469246A1
:10087000044600F124080168880604D5E06921F0E7
:100880001001216000E00120A84201DD471B00E0CB
:100890000027A1697A1902EB0900081AA0612078E3
:1008A000C00602D42046FFF737FD002608E0D4E951
:1008B00001211AF806009047206A401C761C20622D
:1008C0004E45F4DB2078C0060AD52046FFF724FD0C
:1008D00006E0D4E9012130209047206A401C2062C4
:1008E000381EA7F10107F4DC07E0D4E9012118F86C
:1008F00005009047206A401C2062281EA5F10105D2
:10090000F3DC2046FFF71EFD2078000602D502200A
:10091000BDE8F0870120FBE711680268006A530513
:1009200001D508700AE0D30501D5088006E013065A
:1009300003D5C217C1E9000200E00860012070473A
:1009400070472DE9FF4F0C461E464FF0FF378BB026
:10095000D2E90001DDF860800A908A46C1F30A55A9
:1009600005B93D46002108464FF00000BAF1000FDE
:1009700000F4400005DA00EB80004FF4400101EA8A
:1009800050004FEA9059B9F1010F00DDB9460A98BD
:1009900050EA4A000ED044F61050A5F2FF35454308
:1009A0002F14B8F1000F1ED07542291E1EDDC9F1AB
:1009B00000021CE0B8F1010F4FF0000001D030211F
:1009C00003E0F24305E02154401CB042FBDB30461B
:1009D0000022002121540B99C1F80880C1E90020B0
:1009E0000FB0BDE8F08FBD1B6D1CDEE74A4600DA94
:1009F000694206A800F00EFD06AB93E8070003ABC2
:100A000083E8070050460A9900F01DFE8DE80700B4
:100A1000A0F500501F3800900398002D0ADD42F227
:100A20001F014A460844002303A90390684601F0C9
:100A300086F809E0A0F500504A461F38002303A9B4
:100A40000390684601F090F88DE807000004000C60
:100A500003D04FF0FF30410800E01046B8F1000F1E
:100A600003D00022009215461EE0751E05D400F04A
:100A7000A1FA303262556D1EF9D5B3460122084302
:100A800002D000227F1C04E02078302801D100220F
:100A90007F1E002A099784D01DE0112D07DA00F08F
:100AA00089FA303262556D1C50EA0102F5D10843D3
:100AB00002D00098C8B10EE00021681E05E0235C5A
:100AC000625C63542254401E491C8142F7DBAB46F2
:100AD000A81B401E0990002004F80B000B98099AEF
:100AE000C0F80880C0E9002B7AE711264FF0000813
:100AF00057E72DE9F04F88460446D21D22F0070142
:100B000091B0D1E90001CDE90A0102F015FF0246DA
:100B10000B98C00F01D02D2007E02068810701D578
:100B20002B2002E0202101EAC000032A099001D015
:100B3000072A05DB03464146204600F0FFFB0BE198
:100B40002078800601D5E06900E00620B8F1650F45
:100B5000814606D0B8F1660F18D0B8F1670F70D192
:100B600031E00020B9F1110F009001DB112301E009
:100B700009F101030AAA01A90CA8FFF7E2FEDDE9C9
:100B80000C70002609F10105834647E001204B4621
:100B900000904FF000470AAA01A90CA8FFF7D1FE68
:100BA000DDE90DB00C995D46002610B909F1010090
:100BB0000D18B9EB050003D4C0F1FF3609F10105AA
:100BC000A5EB09002BE0B9F1010F01DA4FF00109A3
:100BD0000020B9F1110F0090484601DD112300E01B
:100BE00003460AAA01A90CA8FFF7ABFEDDE90C70C9
:100BF0004D4600268346207800070AD4AB4500DA2C
:100C00005D4601A8012D04DD411911F8011C3029B0
:100C100007D04F4502DA17F1040F04DA01208246AB
:100C20000FE06D1EEEE7002F02DCED1B3E4403E0FB
:100C3000781CA84200DD7D1CB81B00F1010A4FF0B2
:100C400000472078000703D4AA4501DB4FF0FF3AA4
:100C50000021B7F1004F0DF143088DF8431024D067
:100C600002202B23002F01DA7F422D230A21021EAE
:100C7000A0F1010000DC5FB197FBF1FC97FBF1F202
:100C800001FB1C7C17460CF1300C08F801CDEEE797
:100C9000A8F1010003702188090501D5452100E074
:100CA0006521A0F1010800F8011C09980FA9A1EB2A
:100CB0000807FF1D00B10120411901EBEA70A1698D
:100CC0003844081A401EA0612078C00602D420468D
:100CD000FFF722FB099828B1D4E901219047206A47
:100CE000401C20622078C00622D52046FFF714FB66
:100CF0001EE0002E04DBB34502DD01A8805D00E0AC
:100D00003020D4E901219047206A401C2062761CE3
:100D1000AAF101005FEA000A0AD100F029F9C068CF
:100D20000168405CD4E901219047206A401C2062A0
:100D3000281EA5F10105DCDC07E0D4E9012118F843
:100D4000010B9047206A401C2062381EA7F1010762
:100D5000F3DC2046FFF7F6FA032011B041E600006D
:100D600001694A1C02610878704700B58FB0CDE96F
:100D700001310021059105497944CDE9031011465F
:100D80006846FFF777FB0FB000BD0000E5FFFFFFEF
:100D90000A6802F8010B0A6070470000074B70B543
:100DA0000D467B44FFF7E1FF0446284600F0A4FB14
:100DB00010B14FF0FF3070BD204670BD33300000E1
:100DC0002DE9FF5F15468A460446DFF8AC80F844FB
:100DD0000027D8E900103E46CDE9001010E03AF8AF
:100DE00016106A4602A800F08BFB411C07D0217840
:100DF000890603D5E269391891420DD80744761C5B
:100E00002078800602D5E069B84205DDAE42E6DB17
:100E10003AF816000028E2D1A069C01BA061204664
:100E2000FFF77AFAD8E90010CDE90010002017E0AA
:100E30003AF818106A4602A800F062FBB0F1FF3FD2
:100E400081460BD000250DF1080B05E0D4E9012106
:100E50001BF8050090476D1C4D45F7D308F10100C4
:100E6000B0428046E4DB206A384420622046FFF727
:100E700069FABDE8FF9F0000A64C00002DE9F04193
:100E80008046D21D22F007020025D2E90002F52992
:100E900015A614D0011E72F1000106DA0023D0EB72
:100EA000030063EB020211A608E0D8F800108B07DC
:100EB00001D50FA602E0490701D50EA6012511466E
:100EC000002408F1240704E000F074F830323A55A9
:100ED000641C50EA0102F7D12B46324621464046B7
:100EE000BDE8F041FFF7BFBC000000002D0000008E
:100EF0002B0000002000000030B4002100F1240489
:100F000008E002F00705D208303542EA4372DB08F8
:100F10006554491C52EA0305F3D10468002310A26A
:100F2000250707D5A40600D421B1C46901230DA269
:100F3000641EC46130BCFFF796BC10B50446214660
:100F40001068FFF75EFC02462046BDE81040002313
:100F5000D2E7D21D22F00701D1E90023CCE700003F
:100F6000000000003000000000487047B804002076
:100F700000487047D804002000487047B80400209B
:100F8000034640688C46002818BF88423CBF034691
:100F90004068F8D318681844884207D00CF1030061
:100FA00020F00700001D411A521A0146081D0A6070
:100FB000FFF7ECBB30B5B0F10A024FEA900E71F1C9
:100FC00000034EEA817EB0EB0E0061EB91014FEA27
:100FD000101E4EEA017E10EB0E0041EB11114FEA9C
:100FE000102E4EEA016E10EB0E0041EB11214FEA7C
:100FF000104E4EEA014E10EB0E0041EB114140182D
:1010000041F100014FEAD00040EA41704FEAD101BE
:1010100010EB80054FEA810444EA907444EB01042C
:101020006D1944EB0404521BA3414FF0000348BF69
:101030000A3200D530BD401C41F1000130BD000036
:101040002DE9F04F04460D46D21D22F0070089B06D
:10105000D0E900974846394602F06EFC0246F80F88
:1010600001D02D2307E02068810701D52B2302E062
:10107000202101EAC0038DF820300BB1012000E0EF
:101080000020032A824601D0072A04DB2946204695
:1010900000F054F93FE12078800601D40D2500E0EE
:1010A000E569C7F30A560D2D49DA00214FEA175BAF
:1010B00008464FF00000002F00F4400007DA00EB74
:1010C00080004FF4400100EBD07001EA6000811510
:1010D000012901DD4FF0FF3100224FEA850CBCF100
:1010E000180F06D31346ACF118004FF08052C240DF
:1010F00003E04FF4801323FA0CF30CF10C0CBCF159
:10110000200F04D3ACF1200C09FA0CF001E007FA2F
:101110000CF000294FF0004801DD18B90FE00ED1A6
:1011200040450CD319EB02095F4121B9404502D17A
:101130009F4329EA0209BBEB175F00D0761C208889
:10114000000502D57B48784402E07A487844193893
:1011500008AA302302F80A30037C0AF10101002EAC
:101160000AF1020A53546A4602DC4FF0300101E0F2
:101170004FF031014FF001088DF8001002D0A6F2B7
:10118000FF3603E059EA470100D06B4E002D02DC28
:101190002178090704D54FF002082E218DF801109F
:1011A000C44600210BE0C7F303433F01C35C491C65
:1011B0006D1E02F80830052908F1010801DA002D3A
:1011C000F1DC00210CE000EB1973491C1B786D1E4B
:1011D000082902F808304FEA091908F1010801DA74
:1011E000002DF0DC21688B0602D516E0A8F101087D
:1011F000E04505DD02EB080313F8013C302BF5D088
:10120000B8F1000F09DD02EB080313F8013C2E2BA7
:1012100003D1090701D4A8F10108002D05DD3E2105
:1012200002F808106D1E08F10108407C002E02F83B
:10123000080008F1010804DA2D20764202F80800BF
:1012400002E02B2002F808000A214FF47A7086424F
:1012500008F101080BDB96FBF0F3303302F808309D
:1012600096FBF0F308F1010800FB136601E0642E21
:101270000CDB642096FBF0F3303302F8083096FB69
:10128000F0F308F1010800FB136601E00A2E06DB0B
:1012900096FBF1F0303002F8080008F1010896FBE7
:1012A000F1F001FB1060303002F80800A16908F18C
:1012B000010808EB050202EB0A00081AA061207879
:1012C000C00602D42046FFF727F8216A08AE01EBDA
:1012D0000A00206204E0D4E9012116F8010B9047CE
:1012E000BAF1010AF7D22078C00602D52046FFF7EE
:1012F00013F86E4609E016F8010B3E280FD0D4E92A
:1013000001219047206A401C2062B8F10108F2D206
:101310002046FFF717F809B00320BDE8F08F206AD8
:101320002844206203E0D4E90121302090476D1E5B
:10133000EBD3F8E7E949000002FCFFFF2DE9F0419B
:101340001F46044603260168072A01F4006004DBF7
:1013500008B116A505E016A503E008B115A500E043
:1013600015A521F010002060A069C01EA0610FB17A
:10137000401EA0612046FEF7CFFF4FB1D4E9012106
:1013800038469047206A401C2062C01C206206E05C
:10139000206AFAE7D4E9012115F8010B9047761E7F
:1013A000F8D22046FEF7CEFFBDE8F0814E414E0058
:1013B0006E616E00494E4600696E660010B5436965
:1013C00013B1AFF3008001E0FFF724FA012010BD54
:1013D000127800F124010A7000224A700122EDE720
:1013E00011684FF0FF32E9E710B5436913B1AFF36D
:1013F000008001E0FFF7E4FC012010BD128800F13D
:10140000240182840022C2840122EDE711684FF09A
:10141000FF32E9E72DE9F047814616468AB03548A4
:1014200078440DC88DE80D0032487844801C03AC28
:101430000DC884E80D0041F69B300844372190FB2D
:10144000F1F290FBF1F5A5F1800501FB12041B3CC4
:1014500002D56442012000E00020DFF898A0804619
:101460000027FA44AAF1BE0A0EE0E0070AD032468D
:10147000684607EB470101230AEB810100F074FB8A
:101480008DE8070064107F1C002CEED1194F7F44BB
:10149000AE3F19E0E80715D007EB04100DF1180A6C
:1014A00090E80E008AE80E00C068F04201D1981959
:1014B00008903246012306A903A800F055FB03ABB0
:1014C00083E807006D10641C002DE3D14FF0010389
:1014D00032466946B8F1000F03A802D000F02FFB96
:1014E00001E000F041FBC9E90001C9F808200AB099
:1014F000BDE8F087A0470000007B00F08000704747
:1015000070B516460C46054600F046F8036893F899
:101510000101012806D0FF2C0FD8185D68B1012009
:101520002C7070BDD3F807013246214603F2071331
:1015300003442846BDE8704018474FF0FF3070BDA7
:1015400010B500F03FF8BDE8104000F036B8754621
:10155000FFF70AFDAE4605006946534620F0070036
:10156000854618B020B5FEF777FEBDE820404FF065
:1015700000064FF000074FF000084FF0000B21F07D
:101580000701AC46ACE8C009ACE8C009ACE8C0094A
:10159000ACE8C0098D46704710B5FFF7E9FC001DA7
:1015A00010BD00BFCD29000010B50446AFF3008088
:1015B0002046BDE81040FEF73ABE002801D002F0F8
:1015C00038BA704710B5012805D0002103A000F0FB
:1015D00021F8012010BD09A1F8E700005349475246
:1015E000544D454D3A204F7574206F6620686561F3
:1015F00070206D656D6F7279000000003A204865BB
:101600006170206D656D6F727920636F7272757095
:101610007465640070B505460C460A2000E06D1C38
:1016200002F009FA35B128780028F8D102E0641CEC
:1016300002F001FA14B120780028F8D1BDE870401A
:101640000A2002F0F8B95FEA400C08BF91F0000FE1
:101650004FEA8C234FEAC12243EA51514FEA1C5012
:1016600018BF00F5F0404FEA300018BF41F00041CC
:101670005FEA6C5C00F02980BCF1FF3F08BF40F0DE
:1016800080407047130C06BF12044FF0100C4FF04F
:10169000000C130E04BF12020CF1080C130F04BF50
:1016A00012010CF1040C930F04BF92000CF1020C18
:1016B000D30F04BF52000CF1010C11464FF0000291
:1016C000A0F11F00A0EB0C00704711F0004F08BF05
:1016D000704731F000413FF4D5AF0B0C06BF090451
:1016E0004FF0100C4FF0000C0B0E04BF09020CF170
:1016F000080C0B0F04BF09010CF1040C8B0F04BF85
:1017000089000CF1020CCB0F04BF49000CF1010C55
:10171000CCF12003A0EB0C0022FA03F302FA0CF246
:1017200041EA030100F10100704720F07F4C80EA9C
:10173000030023F07F47ACEB070303F57C5300F075
:10174000004003F1FF032DE980494FEA154B09B42E
:101750004FEA144325EA0B4E24EA03480FF204260D
:1017600006EB132749083E785FEA320203FB06675F
:10177000C7F5000707FB06F64FEA54374FEAD6468F
:1017800006F1020607FB066CCCF1005C4FEA1C4731
:101790002CEA074C07FB06F40CFB06F504EB154698
:1017A0004FEA961634BF00204FF000404FEAD13781
:1017B00006FB07FC4FEA1C4C0CFB0BF7D21B03FB90
:1017C0000CF761EB07010CFB0EF7B0EB074072EB77
:1017D00017420CFB08F734BFA2EB0742B2EB0742FB
:1017E00061EB17414FEA0C444FEA910706FB07FCF7
:1017F0004FEA1C4C0CFB0BF7B0EBC74072EB5732B7
:1018000003FB0CF734BFA2EBC742B2EBC74261EB5C
:1018100057310CFB0EF7B0EBC70072EB57720CFBA5
:1018200008F734BFA2EBC702B2EBC70261EB5771F6
:10183000039F4FEA816141EA921104EBCC044FEA25
:10184000D1374FEA826206FB07FC42EA90124FEA68
:1018500080604FEA1C4C0CFB0BF7D21B03FB0CF710
:1018600061EB07010CFB0EF7B0EB074072EB174280
:101870000CFB08F734BFA2EB0742B2EB074261EB67
:1018800017414FEA8C554FEA910704EB9C2406FB65
:1018900007FC4FEA1C4C0CFB0BF7B0EBC74072EB9C
:1018A000573203FB0CF734BFA2EBC742B2EBC7427F
:1018B00061EB57310CFB0EF7B0EBC70072EB5772C0
:1018C0000CFB08F734BFA2EBC702B2EBC70261EB17
:1018D000577115EB4C254FEA816141EA92114FEAAD
:1018E00082624FEAD13742EA901206FB07FC44F1CC
:1018F00000044FEA80604FEA1C4C0CFB0BF7D21B34
:1019000003FB0CF761EB07010CFB0EF7B0EB074094
:1019100072EB17420CFB08F734BFA2EB0742B2EBA5
:10192000074261EB174115EB1C154FEA813141EA83
:1019300092414FEA823242EA90424FEA80304FEAC7
:101940000C7644F1000448EA03434EEA0B484FF09A
:10195000000EB2EB080C71EB030724BF6246394658
:101960004EEB0E0E4FF0000B0018524149414BEB6D
:101970000B0BB2EB080C71EB03077BF1000B24BFE0
:10198000624639464EEB0E0E4FF0000B00185241E6
:1019900049414BEB0B0BB2EB080C71EB03077BF1EE
:1019A000000B24BF624639464EEB0E0E51EA020789
:1019B00018BF46F0010616EB0E7655F1000254F101
:1019C000000103D5BDE88901BDE80088BDE88901B3
:1019D000BDE80048B619524141EB0101A3F10103F2
:1019E000704780807F7E7D7C7B7A7978777676758C
:1019F0007473727171706F6E6E6D6C6C6B6A6A6904
:101A00006868676666656464636362616160605F9D
:101A10005F5E5E5D5D5C5C5B5B5A5A595958585716
:101A2000575656555555545453535252525151507E
:101A300050504F4F4F4E4E4D4D4D4C4C4C4B4B4BD1
:101A40004A4A4A4949494848484747474746464617
:101A50004545454444444443434343424242424152
:101A60004141002B9C4630D477002BD01CB54FEA67
:101A7000370703B44FF010004FF01001BAF1000F18
:101A800006D0BCF1000FDCBF40F0080040F00801B8
:101A90004FF000000FBCBDE810400BF1010BBBF193
:101AA000010F08BF5FEA170722BF12F1010211F10F
:101AB00001014FF0004143F1000300F0004043EA10
:101AC00000007047F9D35708D0E746EA064613F1FD
:101AD000400F4FEA16461FDD13F1200FDFBF1643FC
:101AE0000A46002120335B42BED0C3F1200746EAFC
:101AF000064602FA07F74FEA164646EA0706C3F11A
:101B0000200722FA03F201FA07F721FA03F14FF056
:101B1000000342EA0702A7E746EA020646EA06464B
:101B20004FEA164646EA0106BCBF46EA0646360CB0
:101B30004FF000034FF000024FF0000194E72DE951
:101B4000804C9A46934670B491E8380007C831EA51
:101B5000400C48BF34EA430C03D5FFF7E6FDFFF71E
:101B600080FFF0BCBDE8008C2DE9804C9A4693467E
:101B700070B491E8380007C810F0804F08BF13F028
:101B8000804F03D100F005F8FFF76BFFF0BCBDE814
:101B9000008C20F07F4780EA030023F07F4C07EBA6
:101BA0000C03A3F57C5300F00040A3F1FE0392F078
:101BB000000F00F0B38095F0000F00F077802DE962
:101BC00001494FEA11404FEA144621EA004800FB60
:101BD00006FC24EA064708FB06F607FB08F800FBAC
:101BE00007F718EB06484CEB164C4FEA124B18EB74
:101BF00007484FEA15464CEB174022EA0B4E0BFB09
:101C000006FC25EA06470EFB06F607FB0EFE0BFB5D
:101C100007F71EEB064E4CEB164C4FF000061EEB82
:101C2000074E4CEB174B18EB0B0840F1000018EB7C
:101C30000E0B58EB000840F100008F1A4FF0000126
:101C40003CBFC943661B14BFB5EB040C00213CBF6D
:101C5000C943F61B4FEA17444EEA8E0E27EA0445A5
:101C60004FEA1C4704FB07622CEA074C05FB07F709
:101C70000CFB05F604FB0CFC16EB074642EB174287
:101C800016EB0C4642EB1C421BEB060658EB02021D
:101C9000414146EA9E0601D5BDE80189B619524187
:101CA00041EB0101A3F10103BDE801894FEA1445AD
:101CB0004FEA114724EA054621EA074C05FB07F4E1
:101CC00006FB07F70CFB06F105FB0CFC11EB0741CB
:101CD00044EB17444FEA124711EB0C4144EB1C4410
:101CE00022EA074C05FB07F206FB07F70CFB06F69A
:101CF00005FB0CFC16EB074642EB174216EB0C46B5
:101D000042EB1C456A1854F1000148BF7047B619F0
:101D1000524141EB0101A3F10103704795F0000F1F
:101D200037D04FEA11424FEA144721EA024624EA2B
:101D3000074C02FB07F106FB07F70CFB06F402FB5E
:101D40000CFC14EB074441EB17414FEA154714EB29
:101D50000C4441EB1C4125EA074C02FB07F506FB4E
:101D600007F70CFB06F602FB0CFC16EB074645EBEF
:101D7000174516EB0C4645EB1C42121951F10001B8
:101D800048BF7047B619524141EB0101A3F101036D
:101D900070474FEA14454FEA114724EA054621EA05
:101DA000074C05FB07F106FB07F70CFB06F24FF0AB
:101DB000000605FB0CFC12EB074241EB174112EB4E
:101DC0000C4251EB1C4148BF7047921841EB010196
:101DD000A3F10103704700BFFEE700002DE9F041C9
:101DE0008AB007460C4615461E46DDF84080102096
:101DF000FEF745FA01904FEA480001998881019861
:101E0000046001980581019846810020019948608D
:101E100001998873324804903248059000208DF86B
:101E20001800314802903148039000200790099033
:101E300008902F48844204D10121042001F00AF9BE
:101E40002EE02C48844204D10121082001F002F93F
:101E500026E02948844204D10121102001F0FAF83B
:101E60001EE02648844204D10121202001F0F2F82E
:101E700016E02348844204D10121402001F0EAF811
:101E80000EE02048844204D10121802001F0E2F8D4
:101E900006E01D48844203D10121801501F0DAF8E3
:101EA00003208DF8020014208DF8030045EA060097
:101EB000ADF800006946204600F04FF8012229469F
:101EC000204600F0DEF801223146204600F0D9F825
:101ED000242201A93846FEF791FB0AB0BDE8F08143
:101EE000CD20000895310008F5220008692100087E
:101EF00000080140000C01400010014000140140A6
:101F000000180140001C014000200140704700B54E
:101F1000034603E04FF47A7000F005F8181EA3F1B1
:101F20000103F7D100BD00B9704700EBC001C90043
:101F30004FF0E0225161002191610521116100BF44
:101F40004FF0E021096901F480310029F8D0042123
:101F50004FF0E022116100BFE6E72DE9F0410246B3
:101F600000250026002000230024002791F803C04C
:101F70000CF00F0591F803C00CF0100CBCF1000F31
:101F800003D091F802C04CEA050591F800C0BCF1FD
:101F9000000F31D0146800202BE04FF0010C0CFA38
:101FA00000F3B1F800C00CEA03069E4220D1830082
:101FB0004FF00F0C0CFA03F7BC4305FA03FC4CEA94
:101FC000040491F803C0BCF1280F06D14FF0010CB6
:101FD0000CFA00FCC2F814C00AE091F803C0BCF18E
:101FE000480F05D14FF0010C0CFA00FCC2F810C0EC
:101FF000401C0828D1D31460B1F800C0BCF1FF0F19
:1020000034DD546800202EE000F1080C4FF0010888
:1020100008FA0CF3B1F800C00CEA03069E4221D185
:1020200083004FF00F0C0CFA03F7BC4305FA03FCD6
:102030004CEA040491F803C0BCF1280F05D100F16B
:10204000080C08FA0CF8C2F8148091F803C0BCF12F
:10205000480F07D100F1080C4FF0010808FA0CF8FE
:10206000C2F81080401C0828CED35460BDE8F0812F
:102070000246002093680B400BB1012000E00020D5
:1020800070470AB1016100E04161704770B50546D3
:102090000E464FF47A7402E0641E04B905E031463E
:1020A000284600F033F80128F6D100BF70BD00BF0C
:1020B000FEE721B1028842F48062028004E00288D7
:1020C0004FF6FF331A4002807047000010B50E48EB
:1020D00000680068807BA0B9012410E001F095F849
:1020E0006106080E01F0B6F801F066F818B901F0C3
:1020F0009AF8204610BD01F096F8601CC4B2802CFE
:10210000ECDB0020F6E700001400002070B502466A
:102110000024002500230020958A138B1B0445EA28
:10212000030626F07F4404EA01068E4201D1012015
:1021300000E0002070BD21B1028842F4807202806C
:1021400004E002884FF6FF631A400280704721B115
:10215000028842F40072028004E002884FF6FF53C6
:102160001A4002807047000070B505465648006866
:102170000068807B002876D0534909680968486860
:102180000121FFF7D8FF50490968096848684F499D
:10219000FFF77CFF4C4A12681268117B4A4A1268AA
:1021A00012685068002200F099F8474909680968E8
:1021B00048684749FFF76AFF434909680968486862
:1021C000294600F094F84049096809684868404980
:1021D000891CFFF75BFF3C490968096848680121D1
:1021E000FFF7A9FF38490968096848683749FFF7C8
:1021F0004DFF354A12681268117B334A1268126823
:102200005068012200F06AF82F4909680968486897
:102210002E49491CFFF73AFF2B49096809684868AD
:102220000021FFF746FF284909680968486801212D
:10223000FFF78DFF244909680968486823493F3141
:10224000FFF724FF204909680968486800F042F850
:1022500004461D490968096848680121FFF729FFFC
:10226000204670BDFFE700F0D0FF174909680968F4
:10227000087B00F0EFFF00F09FFF284600F0EAFF28
:1022800000F09AFF00F0C1FF0F4909680968097B57
:1022900041F0010000F0DEFF00F08EFF0A48006808
:1022A000007D012806D100F096FF040200F093FFA4
:1022B000044302E000F08FFF0446012000F0BEFF5F
:1022C00000F0B1FF2046CCE714000020010003001D
:1022D000820007000146088AC0B2704712B141F07F
:1022E000010102E04FF6FE7319400182704701823E
:1022F0007047000070B505460C4638480068006815
:10230000807B002845D03549096809684868012163
:10231000FFF711FF31490968096848683049FFF73C
:10232000B5FE2E4A12681268117B2C4A1268126898
:1023300050680022FFF7D2FF2849096809684868F9
:102340002849FFF7A3FE2549096809684868294616
:10235000FFF7CDFF21490968096848682149891EAE
:10236000FFF794FEE1B21D4A126812685068FFF749
:10237000BEFF1A490968096848681A49891CFFF7AD
:1023800085FE16490968096848680121FFF7DFFEE4
:1023900022E000F03AFF114909680968087B00F063
:1023A00059FF00F009FF284600F054FF00F004FF39
:1023B0000A480068007D012807D1E1B2081200F048
:1023C00049FFE0B200F046FF02E0E0B200F042FF59
:1023D00000F0F2FE00F027FF70BD000014000020A6
:1023E00001000300820007002DE9F04104460D467C
:1023F0002168E06802F090FBE0606168E06802F04C
:102400008BFB06463146E06802F0E8FB2061284677
:10241000A16802F0D9FD0746216902F009FD0646D0
:10242000A16802F079FBA0604FF07E50216902F0B4
:10243000CBFD0646E16802F0FBFCE060A068BDE869
:10244000F08100002DE9F04F97B00446002016906F
:10245000D6480068B0B1D648D6490860D64848602A
:10246000002088604FF07E50C860D148D349086092
:10247000D1484860002088604FF07E50C86000203E
:10248000CA490860CE48CF4A106081683C2088471E
:102490008346CB48CB4A106081683B2088470BEBD2
:1024A000002000B21690169802F096FC4FF0804182
:1024B000119002F0BDFC83464FF08E4102F08EFB7E
:1024C0000646BF48BF4A106081683E208847834661
:1024D000BB48BC4A106081683D2088470BEB002058
:1024E00000B21690169802F077FC4FF080411190E0
:1024F00002F09EFC83464FF08E4102F06FFB0746D0
:10250000AF48B04A10608168402088478346AC4895
:10251000AC4A106081683F2088470BEB002000B276
:102520001690169802F058FC4FF08041119002F07E
:102530007FFC83464FF08E4102F050FB8046A0485E
:10254000A04A106081684420884783469C489D4A81
:1025500010608168432088470BEB002000B2169082
:10256000169802F039FC9849119002F061FC8346FC
:10257000964902F05DFC81469148924A106081685C
:102580004620884783468E488E4A106081684520E1
:1025900088470BEB002000B21690169802F01CFC46
:1025A0008949119002F044FC8346884902F040FCBE
:1025B00082468348834A1060816848208847834662
:1025C0007F48804A10608168472088470BEB002BCA
:1025D0007F48006802F0C4FBABEB000000B216902D
:1025E000169802F0F9FB7849119002F021FC83461D
:1025F000764902F01DFC15904146404602F018FC59
:1026000039460D90384602F013FC31460B903046A7
:1026100002F00EFC0A900B9902F07EFA0C900D99D4
:1026200002F07AFA834602F04BFACDE90E0101F08E
:1026300063FCCDE9100101F0B1FC1490149802F094
:102640003FFA4FF03332634BCDE9100102F026F828
:1026500001D2614D01E04FF07E5551465F48006860
:1026600002F05AFA5D49086049465D48006802F088
:1026700053FA5B49086029464FF07E5002F0A4FCF3
:102680000B90564801680B9802F0D2FB834602F08B
:1026900017FACDE90E01404602F012FACDE9020127
:1026A000384602F00DFACDE90001DDE9022301F020
:1026B000D3FACDE90601284602F002FACDE9040179
:1026C000DDE9062301F0ECFE4FF08042454BCDE9F9
:1026D000080101F051FD0022434BCDE90A0101F050
:1026E000DFFECDE90C01DDE90E2301F089FCCDE927
:1026F000100101F053FC139029464FF07E5002F078
:1027000063FC0B90364801680B9802F091FB8346FE
:1027100002F0D6F9CDE90E01404602F0D1F9CDE93B
:102720000201304602F0CCF9CDE90001DDE90223D7
:1027300001F092FACDE90601284602F0C1F9CDE98F
:102740000401DDE9062301F0ABFE4FF08042254B8A
:10275000CDE9080101F010FD0022234BCDE90A016B
:1027600001F09EFECDE90C01DDE90E2301F048FCED
:1027700081F00041CDE9100101F010FC12900D48EC
:102780001399FFF731FE60600C481299FFF72CFE99
:10279000A0604FF08041159802F020FA834621682E
:1027A00002F0BAF9206017B0BDE8F08F24000020D5
:1027B0006F12833A78000020CDCCCC3D8C000020F5
:1027C00054000020140000200AD7233C03FA8E3C5A
:1027D000180000203333F33FCDCC4C3F28000020BD
:1027E0002C000020FB210940008066402DE9F047C5
:1027F0000446394839490860802142686B20904777
:102800006420FFF784FB34483449086000214268A3
:102810006B2090472088B0F57A7F03DB4FF47A7005
:10282000208004E02088042801DA04202080208809
:1028300002F0EAFA81464946294802F0CFF980467B
:102840004FF07E5102F0C0FB074602F0A5FAC6B277
:102850002148224908603146426819209047A179F1
:102860001D481E4B1860426838209047A1781A48CE
:102870001A4B186042681A209047E1781648174BA7
:10288000186042681B20904721791348134B186049
:1028900042681C20904761790F48104B18604268CD
:1028A000232090470025607900B14025A07900F0F1
:1028B000010008B945F0080507480849086029469D
:1028C00042686A2090470448044908600121426830
:1028D0006B209047BDE8F0875400002014000020D2
:1028E00000007A442DE9F0414FF4FA7400250027E6
:1028F0001CE01548154A10608168482088478046CA
:102900001148124A106081684720884748EA002031
:1029100006B2304602F060FA8046294602F0FCF822
:1029200005460A20FFF7F3FA781C87B2A742E0DBDE
:10293000204602F069FA07463946284602F04EF969
:1029400003490860BDE8F081540000201400002015
:102950001800002070B58CB004460D46164668205D
:1029600033462A462146009001A8FFF737FA242271
:1029700001A90E48FDF742FE6420ADF828000620AC
:102980008DF82A0000208DF82B008DF82C008DF892
:102990002D008DF82E000AA8FFF728FF3220FFF740
:1029A000B6FAFFF79FFF0CB070BD00005400002086
:1029B00000BFFEE710B5084A126812685189064A3E
:1029C000126812681068FFF753FB04460020FFF7F7
:1029D000AAFA204610BD00001400002010B50446DD
:1029E0004CB10B480068006800890949096809680A
:1029F0000968086108E00648006800680089044921
:102A000009680968096848610020FFF78CFA10BD61
:102A10001400002010B504464CB10B480068006853
:102A200040890949096809680968086108E0064899
:102A300000680068408904490968096809684861B4
:102A40000020FFF770FA10BD14000020704700004E
:102A500070B5002100230F22C47804B3154C2468FC
:102A600004F4E064C4F5E064210AC1F10403CA403F
:102A7000447804FA03F184781440214309010E4C90
:102A80000678A155047804F01F050124AC400578B0
:102A90006D11AD0005F1E025C5F8004109E00478AD
:102AA00004F01F050124AC40044D0678761145F86A
:102AB000264070BD0CED00E000E400E080E100E0A5
:102AC00002490143024A1160704700000000FA0504
:102AD0000CED00E000200CE0002106E00022064B97
:102AE00003EBC0135A544A1CD1B28029F6DB421CB6
:102AF000D0B20828F0DB7047A00000202DE9F04399
:102B000004460D4616461F46284638E0224631E068
:102B1000002A2DDB7F2A2BDC002829DB3F2827DC3D
:102B20004FEAE07C00EB5C7C4FEAEC0CDFF858806D
:102B300008EBCC1C1CF802C003464FEAE07800EB1F
:102B400058784FEAE808A0EBC8094FF0010808FAE6
:102B500009F82CEA080C01464FEAE07800EB5878B7
:102B60004FEAE808DFF8209009EBC81808F802C01F
:102B7000511C0AB2A1199142CADC411C08B2E919E0
:102B80008142C3DCBDE8F083A00000202DE9F843BA
:102B900004460D4616462F484460058146810027AD
:102BA00008E04FF0000801E008F10108B8F57A7F6D
:102BB000FAD37F1CB7F57A7FF3D32748844204D138
:102BC0000121042000F046FA2EE02448844204D17A
:102BD0000121082000F03EFA26E02148844204D179
:102BE0000121102000F036FA1EE01E48844204D174
:102BF0000121202000F02EFA16E01B48844204D167
:102C00000121402000F026FA0EE01848844204D149
:102C10000121802000F01EFA06E01548844203D10D
:102C20000121801500F016FA14208DF8030003200E
:102C30008DF8020045EA0600ADF80000694620461E
:102C4000FFF78BF9012000F09FF9012000F0ACF9AB
:102C5000BDE8F883A004002000080140000C0140FA
:102C6000001001400014014000180140001C014008
:102C70000020014010B5044600230DE080211941D9
:102C800001EA040000F090F9012000F07DF9002035
:102C900000F07AF9581CC3B2082BEFDB012000F0DA
:102CA00073F9002000F070F910BD00B5012000F0AC
:102CB0007BF9012000F068F9002000F075F9002090
:102CC00000F062F900BD00B5002000F06DF90120B0
:102CD00000F05AF9012000F067F900BD70B5044614
:102CE0000D461646324629462046FFF74FFF002084
:102CF00025490870AE2000F067F9D52000F064F98E
:102D0000802000F061F9A82000F05EF93F2000F07B
:102D10005BF9D32000F058F9002000F055F940206D
:102D200000F052F9A12000F04FF9C82000F04CF952
:102D3000DA2000F049F9122000F046F9812000F075
:102D400043F9CF2000F040F9D92000F03DF9F120FF
:102D500000F03AF9DB2000F037F9302000F034F9C8
:102D6000A42000F031F9A62000F02EF98D2000F00B
:102D70002BF9142000F028F9AF2000F025F9FFF717
:102D8000A9FE00F0EDF870BD4C0000200FB470B546
:102D9000C2B005460E4614464AA8019002A8019A00
:102DA0004999FDF79BFA00200190234602AA31467B
:102DB000284600F0BDF842B070BC5DF814FB30B599
:102DC00005460C4645F0B00000F0FEF8102141EA3F
:102DD000141000F0F9F804F00F0000F0F5F830BD21
:102DE000F8B506460F4614461D46082D0CD1A4F131
:102DF00020000E4901EB00101023082239460090F4
:102E0000304600F017F80FE0062D0DD1A4F1200098
:102E100000EB4000064901EB40000823062239463A
:102E20000090304600F006F8F8BD0000AA510008F6
:102E30009A5700082DE9FF4F80460E469146DDF86F
:102E400034B0002500244A4631464046039BFFF734
:102E500055FE00BF5EE0002558E008EB05000028A5
:102E600052DB08EB05007F284EDC3046F11706EBFD
:102E70005171C9100FB2F11706EB5171C910A6EBD1
:102E8000C10A002E05DA781E07B20AF108000FFA0F
:102E900080FA3819002817DB3819072814DC38198C
:102EA000224901EBC01008EB0501405C04FB09510D
:102EB0001BF8011001FA0AF1084339191B4A02EB09
:102EC000C11108EB050288543819401C00281BDB8F
:102ED0003819401C072817DC3819401C134901EB2E
:102EE000C01008EB0501405C04FB09511BF8011000
:102EF000CAF10802114108433919491C0B4A02EB77
:102F0000C11108EB05028854681CC5B24D45A4DB0D
:102F1000601CC4B20399481EC11700EB5171012215
:102F200002EBE101A14296DCBDE8FF8FA00000208A
:102F30002DE9F0410646884615461F46002409E063
:102F40002A5D04FB076108B23B464146FFF748FF94
:102F5000601CC4B2285D0028F2D1BDE8F0810000F9
:102F600010B500240BE000212046FFF728FF05499B
:102F700001EBC410802100F03DF8601CC4B2082CA5
:102F8000F1DB10BDA000002028B106490989054ADF
:102F90005268116104E003490989024A526851618B
:102FA00070470000A004002028B106494989054A5D
:102FB0005268116104E003494989024A526851612B
:102FC00070470000A004002010B5044608480078AF
:102FD00060B9FFF76AFE7820FFF74CFE0020FFF78C
:102FE00049FE2046FFF746FEFFF76DFE10BD0000CC
:102FF0004C00002070B505460E460C48007898B984
:10300000FFF753FE7820FFF735FE4020FFF732FE32
:10301000002404E0285DFFF72DFE601CC4B2B4421A
:10302000F8DBFFF750FE00BF70BD00004C00002031
:103030007047000029B1064AD2690243044BDA61A5
:1030400004E0034AD2698243014BDA617047000011
:103050000010024029B1064A92690243044B9A616A
:1030600004E0034A92698243014B9A617047000071
:103070000010024030B500210022002400232D4D15
:103080006D6805F00C0121B1042905D0082923D170
:1030900005E0294D056022E0274D05601FE0254D24
:1030A0006D6805F47012234D6D6805F480340225B7
:1030B00005EB92421CB9214D554305600BE01D4DB7
:1030C0006D6805F400351DB11C4D5543056002E0E7
:1030D000194D5543056002E0174D056000BF00BF64
:1030E000144D6D6805F0F0010909154D6B5C05681C
:1030F000DD4045600F4D6D6805F4E061090A104D33
:103100006B5C4568DD4085600A4D6D6805F4605173
:10311000C90A0B4D6B5C4568DD40C560054D6D68A7
:1031200005F44041890B074D6B5CC568B5FBF3F5B1
:10313000056130BD0010024000127A0000093D0018
:1031400000000020100000201149096821F480319E
:103150000F4A11601146096821F480211160B0F511
:10316000803F03D0B0F5802F0ED106E008490968F2
:1031700041F48031064A116007E00549096841F4CD
:10318000A021034A116000E000BF00BF70470000AB
:103190000010024010B500F038F8064909680968C7
:1031A000087B00F057F800F007F8044600F03BF801
:1031B000204610BD1400002010B50120FFF72AFCA6
:1031C0000120FFF70BFCFFF7F5FB04460020FFF79B
:1031D00005FC204610BD70B500250120FFF71AFC44
:1031E00000240EE00120FFF7F9FBFFF7E3FB0128C5
:1031F00002D18020204105430020FFF7EFFB601C37
:10320000C4B2082CEEDB284670BD10B50120FFF7D4
:1032100001FC0120FFF7E2FB0020FFF7FBFB002091
:10322000FFF7DCFB10BD10B50020FFF7F3FB01201A
:10323000FFF7D4FB0120FFF7EDFB10BD10B50446EE
:103240002046FFF7E7FB0120FFF7C8FB0020FFF750
:10325000C5FB10BD70B50546002416E08021214154
:1032600001EA0500FFF7D6FB0020FEF75CFE012017
:10327000FFF7B4FB0020FEF756FE0020FFF7AEFB81
:103280000020FEF750FE601CC4B2082CE6DB70BDC7
:103290007047000030B587B004460D4603208DF816
:1032A0001A004A4884421FD101218803FFF7D2FE49
:1032B00001210420FFF7CEFE18208DF81B006015B9
:1032C000ADF8180006A94248FEF747FE04208DF825
:1032D0001B000002ADF8180006A93D48FEF73DFEB0
:1032E00025208DF8140044E03A4884421FD1012182
:1032F0004804FFF7AFFE01210420FFF7ABFE1820C2
:103300008DF81B000420ADF8180006A93048FEF720
:1033100024FE04208DF81B000820ADF8180006A933
:103320002B48FEF71AFE26208DF8140021E02A48CB
:1033300084421ED101218804FFF78CFE0121082060
:10334000FFF788FE18208DF81B002015ADF8180037
:1033500006A92248FEF701FE04208DF81B0040025A
:10336000ADF8180006A91D48FEF7F7FD27208DF8D7
:10337000140001950020ADF810000C20ADF80E00EF
:103380000020ADF80C00ADF80A00ADF8080001A966
:10339000204600F05FFA012240F22551204600F05D
:1033A00033FA4FF4A060FFF78BFB01208DF8170074
:1033B0008DF8150000208DF8160005A8FFF748FBD2
:1033C0000121204600F0DDF907B030BD0038014092
:1033D000000801400044004000480040000C01404B
:1033E00010B500F001F810BD0CB500200190009060
:1033F0003348006840F480303149086000BF3048ED
:10340000006800F4003000900198401C0190009882
:1034100018B90198B0F5A06FF1D12948006800F4FF
:10342000003010B10120009001E0002000900098D1
:10343000012843D12348006840F01000214908606A
:103440000846006820F0030008600846006840F065
:10345000020008601A4840681949486008464068F8
:1034600048600846406840F480604860084640680C
:1034700020F47C1048600846406840F4E81048603A
:103480000846006840F08070086000BF0C48006883
:1034900000F000700028F9D00948406820F00300CF
:1034A000074948600846406840F00200486000BF95
:1034B0000348406800F00C000828F9D10CBD00005A
:1034C00000100240002002407047000010B5134871
:1034D000006840F001001149086008464068104942
:1034E00008400E494860084600680E4908400B49EC
:1034F00008600846006820F480200860084640689C
:1035000020F4FE0048604FF41F008860FFF768FF5A
:103510004FF000600449086010BD00000010024038
:103520000000FFF8FFFFF6FE08ED00E010B50121F6
:10353000064800F021F8012806D10121034800F0D7
:103540000CF80348FEF77EFF10BD000000040040A9
:10355000AC040020CA4302827047CA43028270470B
:1035600021B1028842F00102028004E002884FF695
:10357000FE731A400280704730B5024600200023D7
:103580000024158A05EA0103958905EA010413B1AF
:103590000CB1012000E0002030BD1AB183890B433B
:1035A000838102E083898B438381704700220288F4
:1035B0001D4B98420ED01D4B98420BD0B0F1804F5E
:1035C00008D01B4B984205D01A4B984202D01A4B98
:1035D000984204D14FF68F731A404B881A43174B09
:1035E000984207D0164B984204D04FF6FF431A403A
:1035F000CB881A4302808B8883850B8803850A4B0E
:1036000098420BD0094B984208D00E4B984205D0F7
:103610000D4B984202D00D4B984201D10B7A038694
:103620000123838270470000002C014000340140D8
:103630000004004000080040000C00400010004062
:103640000014004000400140004401400048014097
:103650007FB504460D46B4F1804F04D101210846E0
:10366000FFF7E8FC16E03448844204D1012102202F
:10367000FFF7E0FC0EE03148844204D10121042030
:10368000FFF7D8FC06E02E48844203D10121082030
:10369000FFF7D0FC4FF48030FFF756FD0020ADF867
:1036A0000A00ADF8060005EB85004000401E80B220
:1036B000ADF8080041F61F40ADF8040000208DF879
:1036C0000C0001A92046FFF771FF4FF4A060FFF73F
:1036D000F7F9B4F1804F03D11C208DF800000CE005
:1036E0001548844203D11D208DF8000005E01348E1
:1036F000844202D11E208DF8000001208DF80300C5
:1037000002208DF8010001208DF802006846FFF7C5
:103710009FF9012211462046FFF73FFF0121204675
:10372000FFF718FF01212046FFF717FF0121204670
:10373000FFF716FF7FBD00000004004000080040B6
:10374000000C004010B540F22551054800F032F859
:10375000012804D140F22551014800F003F810BDC2
:103760000038014010B50022002340F66A14A1423F
:1037700000D100BF0A1201249440A3B2DC430480AC
:1037800010BD21B1828942F40052828104E0828915
:103790004DF6FF731A408281704702460020B1F552
:1037A000007F00D100BF13880B400BB1012000E067
:1037B0000020704770B50246002400230025002039
:1037C00040F66A16B14200D100BFC1F3421501F0C4
:1037D0001F03012606FA03F3012D02D19689334017
:1037E00006E0022D02D1168A334001E0968A33406A
:1037F0000C12012606FA04F41688344013B10CB1F9
:10380000012000E0002070BDF0B503460024002632
:103810000025002040F66A17B94200D100BF1846C3
:10382000C1F3421401F01F06012707FA06F5012C27
:1038300001D10C3004E0022C01D1103000E0143032
:103840001AB107682F43076002E00768AF430760BB
:10385000F0BD00002DE9F04786B005460E46002475
:10386000A24600BFA1460027B08900B100BF2F4685
:103870002C8A4CF6FF700440F08804432C82AC89FB
:103880004EF6F3100440B08831890843718908432B
:103890000443AC81AC8A4FF6FF400440B089044336
:1038A000AC8201A8FFF7E6FB1F48874202D1DDF892
:1038B00010A001E0DDF80CA0A88900F4004040B1A0
:1038C0000AEBCA0000EB0A1031684900B0FBF1F8BE
:1038D00007E00AEBCA0000EB0A1031688900B0FB70
:1038E000F1F86420B8FBF0F004012009642101FB29
:1038F0001089A88900F4004040B1322000EBC900D3
:10390000B0FBF1F000F00700044308E0322000EBC8
:1039100009106421B0FBF1F000F00F0004432C818A
:1039200006B0BDE8F087000000380140C1F308028E
:103930008280704700BFFEE7490050EAC12018BFEF
:1039400004204A0D18BF40F0010040F2FF72B2EBB4
:10395000515F08BF40F00200012808BF05207047F2
:103960002DE9F0414F1E00EBC7010446D1E90001EB
:1039700015461E4637F006020DD02A46334600F0A3
:103980008FFD7F1E04EBC703D3E9002300F038FB53
:1039900037F00602F1D1022F25D0042F13D0062FC5
:1039A00018BFBDE8F0812A46334600F079FDD4E91E
:1039B0000A2300F025FB2A46334600F071FDD4E9C6
:1039C000082300F01DFB2A46334600F069FDD4E9C8
:1039D000062300F015FB2A46334600F061FDD4E9CA
:1039E000042300F00DFB2A46334600F059FDD4E9CC
:1039F000022300F005FB2A46334600F051FDD4E9CE
:103A00000023BDE8F04100F0FBBA012201F087BBC2
:103A100000F0F6BA024A0020110701F080BB000056
:103A200001FDFFFF30380A2801D201207047002035
:103A3000704700BF704770472DE9F84F04460D46A8
:103A400021F0004000917349814211DC72498842A3
:103A500001DC06D12CB120462946BDE8F84FFFF71E
:103A6000D4BF6E48002DCCBF6D496E49BDE8F88FBC
:103A70006D49814211DD6D498142D8BF4FF0FF365B
:103A80006DDD20462946FFF757FF042808BFFFF7E2
:103A9000C1FF20462946BDE8F88F6549654F25F0EE
:103AA0000045814233DD6449814219DD00263246FA
:103AB0004FF080432046294600F0A2FA80468A460D
:103AC00001222046294601F02AFB00223B4600F055
:103AD0000DFF4246534600F04FFB04460D463EE0C4
:103AE00001260022BA463B462046294600F088FAC5
:103AF00080460F46002253462046294600F0F6FE37
:103B000042463B4600F038FB04460D4627E04B4951
:103B100081421BDDDFF828A1022600225346204601
:103B2000294600F0BDFC00223B4600F069FA8046C1
:103B30000F46002253462046294600F0D7FE424653
:103B40003B4600F019FB04460D4608E003262246DA
:103B50002B4600203B4900F00FFB04460D46224651
:103B60002B461046194600F09BFC8B4682460246C7
:103B70000B4600F095FC07460246334888460B4644
:103B800006217844FFF7ECFE52465B4600F088FCC5
:103B900082462E488B463A46434605217844FFF735
:103BA000DFFE3A46434600F07BFC02460B46002E01
:103BB000504659460CDA00F023FA22462B4600F014
:103BC0006FFC01B022462B46BDE8F04F00F09CBDD3
:103BD00000F016FA22462B4600F062FC1C4A7A449A
:103BE00002EBC603D3E9002300F080FE22462B46F9
:103BF00000F07CFE174A7A4402EBC603D3E90023A7
:103C000000F082FD009A002AB8BF81F00041BDE8B3
:103C1000F88F0000000010440000F07F182D44547D
:103C2000FB21F93FFB21F9BF0000DC3F0000203EF3
:103C30000000F33F0000F03F0000E63F008003403B
:103C40000000F83F0000F0BF621F0000201F0000CE
:103C5000BE1E0000861E00002DE9F04D9446CCF1FA
:103C6000000423F000464CEA0404524F46EAD474A0
:103C70009A46884621F00042BC4206D8454240EAB6
:103C8000050442EAD474BC4204D9BDE8F04D624652
:103C9000FFF7BEBEAAF14055A5F17F6555EA0C04B9
:103CA0000BD0022404EAAA74434DDFF810E144EA81
:103CB000D87452EA000B04D00CE0BDE8F04DFFF7D9
:103CC000BBBE002C14BF012CBDE8F08D022C30D0FF
:103CD000032C32D056EA0C0B0AD0BE4220D1BA4295
:103CE00009D126F0804622F080423346114617E083
:103CF00000291ADB25E0DFF8C8B0FB44002C04BF24
:103D0000DBE90001BDE8F08D012C02BFDBE9000119
:103D100081F00041BDE8F08D022C0AD0032C0CD0BC
:103D2000BA4212D1B8F1000F0BDA23482549BDE899
:103D3000F08D28462449BDE8F08D28467146BDE83F
:103D4000F08D1D482149BDE8F08D921B12153C2ACB
:103D5000C4BF19481D490EDCBAF1000FBEBF12F1F5
:103D60003C0F0020014606DB624600F005FA21F018
:103D70000041FFF761FE002C08BFBDE8F08D012C6B
:103D800004BF81F00041BDE8F08D114A114B022CB7
:103D900007D000F0ABFD2A46BDE8F04D0A4B00F01D
:103DA000A5BD00F0A3FD2A46BDE8F04D064B00F08E
:103DB000ABBC00000000F07F182D4454FB2109C06B
:103DC0001A1E0000FB21F9BFFB210940FB21F93F2E
:103DD000075C143326A6A13C70B504460D4600BF0F
:103DE00080210548FFF7D9FC0028F9D0E1B202484C
:103DF000FFF79CFD204670BD003801401FB54FF411
:103E0000E1312B48FFF746FA4FF400625110294880
:103E1000FEF764FF022201212748FEF79BFD0A21DD
:103E20002648FFF715FC41E0FEF754FE24490868D8
:103E300000F046FE04460D462149886800F040FE29
:103E400006460F461E49486800F03AFE8046424644
:103E50000B461CA0CDE90067CDE90245FCF750FAFE
:103E60001749486800F02CFE1AA30622CDE900018C
:103E700000210846FEF78AFF1149886800F020FEFD
:103E800017A30622CDE9000108210020FEF77EFFDE
:103E90000B49086800F014FE14A30622CDE90001C6
:103EA00010210020FEF772FFFFF75AF8BCE7000070
:103EB00000380140000C01400008014000040040AF
:103EC000AC040020252E33662C252E33662C252E9F
:103ED00033660A00726F6C6C3A252E326600000061
:103EE00070697463683A252E326600007961773A0A
:103EF000252E3266000000002DE9F04106460F46EF
:103F000000F00EFC041E0D4618BF0120284320F0CF
:103F10000040C0F17F6000F1E040C00F0ED0301CC7
:103F200018BF0120384320F00040C0F17F6000F14D
:103F3000E040C00F04BF0120FCF754FC2046294696
:103F4000BDE8F08110B500290AD00878002807D014
:103F500005487844FCF784FB002801D0002010BD00
:103F60000248784410BD0000AA1C0000A21C0000FA
:103F700010B500290AD00878002807D005487844F1
:103F8000FCF76EFB002801D0002010BD02487844E9
:103F900010BD00009A1C0000921C000021F000429D
:103FA000A2F16052B2F5801F01F0004328BFD2F1A8
:103FB0007F6C0BD95FEA001C43EAC20242EB5070EF
:103FC00018BF704728BF20F001007047B2F5801F6E
:103FD000BCBF184670474FEA410C1CF5001F02D2C7
:103FE000084600F0ECBF70B500F004FB000000894B
:103FF000FFF7F6BF4FF00040A0F5800070470000CB
:1040000010B591EA030F48BF83F0004300F17684B6
:10401000841A71EB030C05D2121943EB0C03001B3D
:1040200061EB0C01DFF824E14FEA1154A4EB135CBF
:104030001EEA430F18BF9EEA445F73D023EA0E03C3
:10404000DCF1200E21EA045143F4801332D322FA2A
:104050000CFE10EB0E0023FA0CFE41EB0E01CCF12E
:10406000200E03FA0EFE10EB0E0051F10001B1F527
:10407000801FCCF1200E32D201EB045112FA0EF265
:10408000BDE8104058BF7047401C38BF5FEA42028D
:1040900018BF7047002814BF20F0010041F1000153
:1040A0004FEA410313F5001F38BF7047A1F1C0412B
:1040B00000F0EEBA012A43EB0302ACF1200CDCF174
:1040C0001F0E32BF4FF0000E23FA0CF310EB03006B
:1040D00041EB0451B4EB115FD0D0A1EB045101F5D9
:1040E000801149085FEA300001EB04510ED350F112
:1040F000000038BF12FA0EFE08D1BDE81040C9E733
:10410000401C38BF5FEA4202CAD1C3E7BDE8104095
:104110004FEA410313F5001F38BF7047A1F1C041BA
:1041200000F0B6BA9EEA445F08D011EA5E0FBDE81F
:10413000104004BF01F0004100207047BDE810406E
:1041400070B500F057FA00BF64FBBE3E0000E0FF10
:1041500002494FF0000000F0B0BF00BF0000F87F40
:10416000491058BFC1F140415B1058BFC3F14043F3
:104170008B42EFF3008070472DE9C04130B4DFF887
:10418000A0C23CEA111418BF3CEA131400F0EC8002
:1041900081EA03051CEA111444EAD57418BF1CEA2D
:1041A000131500F0C780A4EB05044FF0004545EA65
:1041B000C12145EAC32341EA505143EA525304F175
:1041C0007F74994204F500344FEAC0204FEAC222BE
:1041D00008BF904200F09C804FEA13650FF2401632
:1041E000765D4FEA134506FB05F7C7F1807706FBBE
:1041F00007F74FEAD737A7FB03687642C8F5803840
:10420000A7FB06CE38BFA8F1010807FB08E64FF070
:10421000000EA6FB028CE6FB03CEDCF1000CCEF117
:10422000004E38BFAEF1010EA6FB0C584FF0000750
:104230004FF00005E6FB0E87A1FB08C6A0FB07CEEA
:1042400016EB0E0645F10005E1FB076515F1E04EA2
:104250007EBFA4F580345FEA46066D4116F1800703
:1042600045F100054FEA17274FEA066647EA05675A
:10427000A6F1DE46B6F1805F4FEA15251FD9384614
:1042800024F0010C05EBC471BCF1FE6F01EB0C11C5
:1042900002D8F0BCBDE8008124425CBF01F5801E5D
:1042A0009EEAC47F02D4F0BCBDE80081244238D429
:1042B000F0BCA1F1C041BDE8004100F0E9B94FEA0E
:1042C000D22242EA43524FEAD323A7FB02864FEAA7
:1042D000D02040EA415007FB03661EEA0E0F4FEA6A
:1042E000D12105FB026658BFA6EB0056B6EB00567F
:1042F0004FEA520E4EEAC37E18EB0E0E56EB530EEB
:10430000BDD518EB02085E417F1C55F10005B6E7EC
:104310004FF480154FF000074FF000064FF00008F3
:10432000ADE7F0BC4FF0000001F1C04101F00041E9
:10433000BDE8008111EA0C1F0CEA131500D00CE057
:1043400013EA0C1F00F025804FF00000F0BC81EA5A
:10435000030101F00041BDE80081F0BCBDE800416F
:1043600081EA030100F094B9F0BCBDE8004170B5EA
:1043700000F040F9097EFC3E00F007B881EA030135
:104380004FF0000001F00041704781EA030100F0A6
:104390007FB9F0BCBDE800414FF0000021497047F3
:1043A000FFFDFBF9F7F5F4F2F0EEEDEBE9E8E6E4FA
:1043B000E3E1E0DEDDDBDAD8D7D5D4D3D1D0CFCD81
:1043C000CCCBCAC8C7C6C5C4C2C1C0BFBEBDBCBBBA
:1043D000BAB9B8B7B6B5B4B3B2B1B0AFAEADACABB5
:1043E000AAA9A8A8A7A6A5A4A3A3A2A1A09F9F9E8F
:1043F0009D9C9C9B9A999998979796959594939341
:10440000929191908F8F8E8E8D8C8C8B8B8A8989D7
:10441000888887878685858484838382828181805A
:104420000000FF070000F87F51EA030C17D41CF5C9
:10443000801F58BFBCF5801F00F10680994218BF4D
:10444000704708BF9042704707D711F5801F58BFCB
:1044500013F5801F19D499427047894270471CF5A3
:10446000801F08D5BCF5801FF7D58B4218BF704759
:1044700008BF824270474FF4001C1CEB410F38BF4D
:104480001CEB430F01D28B42704770B500F0B2F8BD
:10449000922449004FF000514FF08053FFF760BE67
:1044A000DFF848C170B51CEA111E1EBF1CEA1315C7
:1044B0009EEA0C0F95EA0C0F00F06F8081EA03046E
:1044C00023EA4C134EEAD47E21EA4C1141F48011C8
:1044D00043F48013AE44A1FB024CA0FB0365AEF194
:1044E0007F7E361955EB0C05A1FB034C4CF1000304
:1044F000A0FB021C16EB0C06654153F100030942B8
:1045000018BF46F0010613F4007F0BD14FEA0331C8
:104510004FEA0530340341EA155140EA16506FF076
:1045200003020AE04FEAC3214FEAC520F40241EA40
:10453000555140EA56506FF0020202EB2E4201EB59
:10454000025585EACE710AD05FEA440C18BF24F008
:10455000004450F1000041F1000120EAD47040F223
:10456000FE7C624500D270BDA84214BF4FF080446B
:104570004FF04044002E08BF0024BEF1806FA8BF5A
:10458000A1F1C041BDE8704080F282804FF0000090
:1045900001F1C04101F0004170479EEA0C0F0CEAA6
:1045A000131518BF95EA0C0F06D04FF0000081EAF2
:1045B000030E0EF0004170BD00F01CF88900013EB2
:1045C00000F007B800F009B84FEA430C5FEA5C5C02
:1045D00008D081EA030100F05BB84FEA410C5FEAC2
:1045E0005C5CF6D14FF00000014970470000FF0706
:1045F0000000F87F0EF1020E2EF0030E5EF8046B41
:10460000364205D4012A43EB030515F5001F12D8E5
:10461000012841EB010C1CF5001F0CD80ED14FEA0C
:10462000D17C15F5001F0CEB4C0C0CF1020C08BFF3
:104630004CEBD37C04E04FF0080C01E04FEAD37C54
:104640000CEB4C0526FA05F606F00706B6F1040C4D
:1046500006D20EEB860CBDE870404CF0010C6047B2
:10466000DFE80CF0090B02024FF000414FF00000B0
:10467000A1F5002170BD19461046012851EB010437
:1046800018BFD4F5001484BF002001F0004170BDB4
:104690000808A0F500114FEA3101704753EA010CF8
:1046A00017D41CF5801F58BFBCF5801F00F1068091
:1046B0008B4218BF704708BF8242704707D713F577
:1046C000801F58BF11F5801F19D48B4270479B4241
:1046D00070471CF5801F08D5BCF5801FF7D599429F
:1046E00018BF704708BF904270474FF4001C1CEB86
:1046F000430F38BF1CEB410F01D2994270470FB4F2
:104700000CBC03BCFFF7C1BE91EA030F10B581F0EA
:1047100000413FF57DAC83F0004300F0EFB80000AE
:104720002DE9F04101F5801CBCF5001FC0F2C380EB
:104730004FEA115C21EA0C510CF1FD0C41F480119F
:104740005FEA5C0C0CF5C07C01D3400049413DA4FC
:10475000890241EA905187028E0E0A0CA45D04FB87
:1047600004F602FB06F6C6F14046A4FB0662F60D0F
:1047700046EA422606FB06F4A4FB01235242C3F19B
:10478000404338BF5B1EA6FB02420024E6FB032425
:10479000D20B42EA4446A6FB0623A1FB02E2A3FB9E
:1047A00007E4A4184FF0000252F10002E3FB0142BB
:1047B0006442C2F1404E38BFAEF1010EA6FB0423A5
:1047C0004FF00002E6FB0E32A2FB03464FF000045E
:1047D000B61954F10004E2FB0264A1FB06E6A4FB57
:1047E00007E816EB08064FF0000858F10008E4FB54
:1047F00001687642C8F1405838BFA8F10108A2FB11
:1048000006E4A3FB08E52D194FF0000454F1000461
:10481000E2FB0854A1FB05E6A7FB04E818EB060839
:104820004FF0000656F10006E1FB048618F1200562
:1048300056F10006A809A8F11B08B10908F03F08C5
:10484000B8F10A0F40EA86601CD901EB0C51BDE8B3
:10485000F08100BFFCF5EEE8E2DDD8D3CFCBC7C3D3
:10486000C0BDB9B6B4B1AEACA9A7A5A3A19F9D9B8D
:104870009A9896959392908F8D8C8B898887868550
:1048800084838281A0FB006800FB01F208EB4208F0
:10489000B8EB872807D5341858EB0104D5D5401C50
:1048A00051F10001D1E7341A78EB0104CDD4401E58
:1048B00071F10001C9E75FEA4C0C5FEA9C5C0DD125
:1048C00005D34FF0000001F00041BDE8F081BDE8E4
:1048D000F04170B5FFF78EFE6DDBFFBEBDE8F04125
:1048E0004FF00000004970470000F87F10B591EAD2
:1048F000030F48BF83F000433FF58AAB841A71EB86
:10490000030C07D212198CF0004C43EB0C03001B74
:1049100061EB0C01DFF8A4E14FEA1154A4EB135C46
:104920001EEA430F18BF9EEA445F00F0B08023EAFE
:104930006E03524221EA0451C3EB6E0338BF5B1E83
:10494000DCF1200E25D322FA0CFE10EB0E0043FA08
:104950000CFE41EB0E01CCF1200E03FA0EFE10EB23
:104960000E0051F10001CCF1200E29D412FA0EF202
:1049700001EB0451BDE8104058BF7047401C1CBFFC
:10498000B2F1004F704700280CBF491C20F0010015
:10499000704712EB020E43EB030218BF4FF0010EFB
:1049A0004EEA4202ACF1200CDCF11E0E54D943FA5F
:1049B0000CFE10EB0E0051F1FF31CCF11E0ED5D5DF
:1049C0000EF1010E12FA0EFE404141EB010101EB26
:1049D000445C5FEA5C5C10D910EBDE7001EB0451C3
:1049E00038BFBEF1004FBDE8104018BF7047002827
:1049F0000CBF491C20F00100704730D24FEAD42C84
:104A000011F5001124F400641BD0B1FA81F20B3AC5
:104A1000A41AA41ED2F12003914030FA03F31943E3
:104A2000904001EBCC71002C01EB0451BDE810402B
:104A3000A8BF704701F1C0414FF0000001F00041F4
:104A40007047B0FA80F310FA03F100D110BDE41AF8
:104A5000173C4805C90AE4E701EB045110BD4910B1
:104A600001EB0451BDE810404FEA300002E04FF086
:104A7000000170474A0008BF0042F8D0B2F5001F9D
:104A800028BF704701F000414FF0000070479EEAD8
:104A9000445F07D011EA5E0FBDE8104004BF00215B
:104AA00000207047BDE8104070B5FFF7A3FD00BFC0
:104AB00040DFF63E83F00041104670470000E0FF03
:104AC00043004FEAD30C4FEA3C0C43401FBF400762
:104AD0000CF1605113F0FE4F70471CF0006F03D1D2
:104AE00000200CF0004170470CF0004343EA507086
:104AF00010B540EACC0000F01CFA00BF00000092A4
:104B00004FEA0001FFF7C4BD4FF000414FF0000035
:104B1000A1F500217047000090EA010F48BF81F025
:104B2000004100F15882421A3CBF801A89184FEAAE
:104B3000D0524FF07F4C1CEA410FA2EBD15318BF6B
:104B40009CEA026F00F03B804FF0004C4CEA0020E2
:104B50004CEA012121FA03FC10EB0C0C1ED202F1ED
:104B6000FF325FEA1C2040EBC25038BF70471CF098
:104B70007F0F4FEA400C18BFBCF17F4F38BF704722
:104B8000C3F12003994008BF20F00100BCF17F4F22
:104B900038BF7047A0F1C04000F011BA4FEA3C00A6
:104BA000000A40EBC25028BF1CF0FF0F4FEA400C38
:104BB000E6D018BFBCF17F4F38BF7047EAE79CEAE8
:104BC000026F05D010EA5C0F08BF00F0004070478C
:104BD00010B500F0AEF900BF64FBBE3E4FF47F0C91
:104BE0001CEAD0121EBF1CEAD11392EA0C0F93EA02
:104BF0000C0F00F0858090EA010F48BF42F48072EC
:104C000040F4000C41F400002CF07F4120F07F4084
:104C100000B58142A2EB03020FF2081CACEB504E30
:104C2000C0F100009EF800E04FEA4E0E00FB0EFCC3
:104C300038BF49004FEA2C1C02F5FA020CFB0EF3B8
:104C40004FEACE1E4FEA112C4FEAC1210EEB635EF4
:104C500042EB22420EFB0CFC4FEA1C5300FB0311FB
:104C60004FEA112C4FEA01310EFB0CFC4FEADC4CF1
:104C700000FB0C11C14228BF09184CEB03335DF84F
:104C800004EB10EB410143EBC250B2F57C0F38BF8F
:104C9000704729D512F0F00F1CBF00F1C04000F0A2
:104CA00000407047008182838485868788898B8C49
:104CB0008D8E8F919293959697999A9C9D9FA0A285
:104CC000A3A5A7A8AAACAEB0B2B3B5B7B9BCBEC0D5
:104CD000C2C5C7C9CCCED1D4D7D9DCDFE2E6E9EC76
:104CE000F0F3F7FAFE0000004FEA400C0CF1807C74
:104CF000BCF17E4F28BF7047B0F1C04000F05FB9F3
:104D000090EA010F0CEAD11348BF42F48072624569
:104D100038BF634507D213F47F0F16D080EA010035
:104D200000F00040704710B500F003F9097EFC3E2A
:104D300000F005B880EA010000F00040704780EA0A
:104D4000010000F0004000F03AB912F47F0F04BFF8
:104D50000248704780EA010000F031B90000C07FCE
:104D600041000B0ED3F19E0208D950F400034FEA24
:104D7000032323FA02F048BF4042704710B500F009
:104D8000D8F800BF49922480002070476FF000429D
:104D900082EA200070470000C10DD1F19E0206DBBF
:104DA0004FEA002343F0004323FA02F07047004229
:104DB00007D54FEA4001B1F1FE4F02D24FF000009B
:104DC000704710B500F0B5F8499224800020704774
:104DD0006FEA20007047000010F0004148BF4042D9
:104DE000B0FA80F310FA03F2C3F19D030BD051EA3D
:104DF000C35101EB1220530638BF704700F1010088
:104E000008BF20F001007047B0FA80F310FA03F2F7
:104E1000C3F19D030AD0D90501EB1220530638BF18
:104E2000704700F1010008BF20F00100704700004A
:104E30004FF47F0C1CEAD0121EBF1CEAD11392EA79
:104E40000C0F93EA0C0F00F0478090EA010F48BF67
:104E500042F480724FF0004C4CEA00204CEA0121F1
:104E600002EB0302A0FB0113A2F50002002918BF08
:104E700043F001035B0028BF4FEA330342EB2242B9
:104E80005FEA132C4CEBC2502EBFBCEB436FB2F564
:104E90007C0F70474FEA036CBCF1004F08BF20F055
:104EA0000100B2F57C0F38BF70470BD582F0FF02CE
:104EB00012F5803FC8BF704700F1C040D8BF00F076
:104EC0000040704700F5000C5FEA4C0C48BF70478B
:104ED000B0F1C04000F073B890EA010F0CEAD113B2
:104EE00048BF42F48072624538BF634504D280EA0D
:104EF000010000F00040704710B500F01AF800BF44
:104F00008900013E00F007B800F009B85FEA410CE3
:104F10005FEA1C6C08D080EA010000F050B85FEA3C
:104F2000400C5FEA1C6CF6D14FF00040A0F5800009
:104F300070470EF1020E2EF0030E5EF8044B244271
:104F400004D44FEA4102B2F17F4F11D84FEA400337
:104F5000B3F17F4F0CD80ED14FEAD07CB2F17F4F26
:104F60000CEB4C0C0CF1020C08BF4CEBD17C04E0B8
:104F70004FF0080C01E04FEAD17C0CEB4C0324FA13
:104F800003F404F00704B4F1040C06D20EEB840C15
:104F9000BDE810404CF0010C6047DFE80CF007085A
:104FA00002024FF00040A0F5800010BD084642000C
:104FB00018BFD2F1807288BF00F0004010BDFF2101
:104FC00041EAD050C005704790EA010F48BF81F018
:104FD00000413FF5A8AD421A04D882F00042A0EB90
:104FE000020011444FEAD0524FF07F4C1CEA410FAF
:104FF000A2EBD15318BF9CEA026F4AD04FF0004C8D
:105000004CEA00204CEA012121FA03FCB0EB0C0C25
:105010000FD412F0FE0F36D05FEA4C001DD50012FF
:1050200040EBC25038BF70471CF03F0F18BF7047AD
:105030000BE0A2F101025FEA1C2040EBC25038BF36
:1050400070471CF07F0F18BF7047C3F120039940D1
:1050500014BF401E20F00100704780084FEA122361
:1050600008BF7047B0FA80FCA2EB0C02CCF1280C10
:1050700060FA0CF093EA122F04BF00EBC2507047A5
:105080004FEAC3707047130A5FEADC1008BF70472D
:10509000F6E79CEA026F04D010EA5C0F08BF00201C
:1050A000704710B5FFF745FF40DFF63E81F0004046
:1050B0007047FBF71EBDFBF7C3BF0CF00F03092BB6
:1050C00008BF082000F059800A2B0BD0082B18BF0E
:1050D000704708BF1CF0400F0AD04FF000004FF09F
:1050E000000170471CF0400F18BF4FF000407047A0
:1050F0001CF0100F08D020F0704300F07F4242EA0D
:10510000D3014FEA4370704700F0604021F07F42C6
:1051100042EA000201F07F4040EA727070474FF0AF
:10512000FF0C4CF4E06C1CEA11531CBF9CEA030C0E
:105130009445C2BFDA4201EB02517047002B0DD0FB
:10514000BCF1000F0FD0002A01F00041A4BF41F0D4
:10515000E04141F07F614FF00000704701F00041F5
:105160004FF00000704750EA01334FF09B0C18BF1E
:105170004CF0806C7EF4ECAF70471CF4801F11D0B3
:105180001CF4E02F03D06FEACC31490070474FF098
:105190004050EFF3008222F0704242EA000282F3B4
:1051A000008870474FF000007047000000000000CA
:1051B00000000000000000000000000000F80000F7
:1051C0000000000000333000000000160E00160E34
:1051D0000000000000000000000040C07840C078DF
:1051E0004000043F04043F040400007088FC0830C1
:1051F0000000001820FF211E0000F008F000E01859
:10520000000000211C031E211E0000F00888700011
:1052100000001E21232419272110000000160E0073
:1052200000000000000000000000000000E0180482
:105230000200000000071820400000020418E000EF
:1052400000000040201807000000404080F080402F
:1052500040000202010F01020200000000F0000005
:1052600000000101011F0101010000000000000019
:10527000000000B07000000000000000000000000E
:105280000000000101010101010100000000000017
:1052900000000030300000000000000000008060CE
:1052A0001804006018060100000000E01008081053
:1052B000E000000F102020100F00001010F8000078
:1052C00000000020203F202000000070080808880F
:1052D00070000030282422213000003008888848DF
:1052E00030000018202020110E000000C02010F80F
:1052F000000000070424243F240000F808888808E0
:1053000008000019212020110E0000E010888818E4
:105310000000000F112020110E0000380808C838C6
:1053200008000000003F00000000007088080888A6
:105330007000001C222121221C0000E0100808102F
:10534000E0000000312222110F00000000C0C00068
:1053500000000000003030000000000000C0C0006D
:105360000000000080B070000000000080402010AD
:105370000800000102040810200040404040404066
:1053800040000404040404040400000810204080C9
:1053900000000020100804020100007048080808FE
:1053A000F0000000003036010000C030C828E810CE
:1053B000E0000718272423140B000000C038E00089
:1053C0000000203C23020227382008F888888870D3
:1053D0000000203F202020110E00C03008080808DF
:1053E0003800071820202010080008F808080810C6
:1053F000E000203F202020100F0008F88888E808EF
:105400001000203F20202320180008F88888E80892
:105410001000203F200003000000C03008080838BA
:10542000000007182020221E020008F808000008CB
:10543000F808203F210101213F20000808F8080852
:1054400000000020203F2020000000000808F8088D
:105450000800C08080807F00000008F888C02818FD
:105460000800203F20012638200008F8080000002E
:105470000000203F20202020300008F8F800F8F835
:105480000800203F003F003F200008F830C000081F
:10549000F808203F200007183F00E0100808081017
:1054A000E0000F10202020100F0008F8080808085E
:1054B000F000203F210101010000E0100808081061
:1054C000E0000F18242438504F0008F88888888896
:1054D0007000203F2000030C30200070880808086E
:1054E00038000038202121221C00180808F808087C
:1054F00018000000203F2000000008F80800000805
:10550000F808001F202020201F000878880000C80D
:105510003808000007380E010000F80800F80008FD
:10552000F800033C0700073C030008186880806807
:10553000180820302C03032C30200838C800C83845
:1055400008000000203F2000000010080808C838AC
:1055500008002038262120201800000000FE02024A
:1055600002000000007F40404000000C30C00000FE
:105570000000000000010638C00000020202FE0028
:105580000000004040407F00000000201008040898
:1055900010200000000000000000000000000000DB
:1055A00000008080808080808080000204080000ED
:1055B00000000000000000000000000080808080EB
:1055C00000000019242222223F2008F800808000D9
:1055D0000000003F112020110E000000008080809C
:1055E0000000000E112020201100000000808088A3
:1055F000F800000E112020103F20000080808080E5
:105600000000001F222222221300008080F08888E0
:1056100088180020203F202000000000808080802B
:105620008000006B94949493600008F80080808060
:105630000000203F210000203F20008098980000BB
:1056400000000020203F20200000000000809898EB
:10565000000000C08080807F000008F8000080808B
:105660008000203F24022D302000000808F80000B0
:1056700000000020203F202000008080808080806B
:105680008000203F20003F20003F0080800080807D
:10569000000000203F2100203F200000808080800B
:1056A0000000001F202020201F008080008080003C
:1056B000000080FFA12020110E00000000808080EB
:1056C0008000000E112020A0FF808080800080805C
:1056D000800020203F212000010000008080808089
:1056E00080000033242424241900008080E080807E
:1056F00000000000001F20200000808000000080CB
:105700008000001F202020103F208080800000802B
:10571000808000010E30080601008080008000803B
:1057200080800F300C030C300F00008080008080E0
:1057300080000020312E0E3120008080800000800B
:10574000808080818E7018060100008080808080BB
:1057500080000021302C2221300000000000807CDD
:10576000020200000000003F404000000000FF0077
:10577000000000000000FF0000000002027C80002A
:1057800000000040403F00000000008040408000DA
:105790000080000000000001010000000000000087
:1057A0000000002F000000000700070000147F1415
:1057B0007F1400242A7F2A12002313086462003613
:1057C0004955225000000007000000001C22410043
:1057D000000041221C000014083E08140008083E86
:1057E0000808000000A06000000808080808000081
:1057F00060600000002010080402003E5149453E50
:105800000000427F4000004261514946002141456D
:105810004B31001814127F10002745454539003CD4
:105820004A494930000171090503003649494936A2
:1058300000064949291E0000363600000000563691
:105840000000000814224100001414141414000075
:1058500041221408000201510906003E4955592E03
:10586000007C1211127C007F49494936003E4141BB
:105870004122007F4141221C007F49494941007F6C
:1058800009090901003E4149497A007F0808087F5B
:105890000000417F4100002040413F01007F08148B
:1058A0002241007F40404040007F020C027F007F89
:1058B0000408107F003E4141413E007F090909066E
:1058C000003E4151215E007F0919294600464949A1
:1058D00049310001017F0101003F4040403F001F6E
:1058E0002040201F003F4038403F006314081463ED
:1058F00000070870080700615149454300007F41D7
:105900004100000204081020000041417F00000413
:105910000201020400404040404000000102040037
:10592000002054545478007F48444438003844449C
:10593000442000384444487F003854545418000828
:105940007E0901020018A4A4A47C007F0804047846
:105950000000447D4000004080847D00007F1028CE
:1059600044000000417F4000007C04180478007C63
:105970000804047800384444443800FC24242418E3
:105980000018242418FC007C08040408004854541F
:10599000542000043F444020003C4040207C001C38
:1059A0002040201C003C4030403C0044281028444B
:1059B000001CA0A0A07C004464544C440000087F5C
:1059C00041000000007F00000000417F0800000847
:1059D00004081008D1A100404042CC00504EC848F5
:1059E0007FC848484000000040201F20504C4340E2
:1059F000404F50505C4000CFEE00080808F80808FF
:105A000000F2121AD61212F202001030100F08081B
:105A1000804F20180710204F8000FF01818181FDF9
:105A20008991A1C1FD81818101FFFF808080809FDC
:105A3000888482819F80808080FF0F0F0F0F30311C
:105A400032333435363738394142434445464030A5
:105A50005800303132333435363738396162636457
:105A60006566403078000400000800000000000077
:105A70000002000100001000000000000000000013
:105A80004FBB610567ACDD3F182D4454FB21E93F56
:105A90009BF681D20B73EF3F182D4454FB21F93F45
:105AA000E2652F227F2B7A3C075C143326A6813CCB
:105AB000BDCBF07A8807703C075C143326A6913C76
:105AC000C4EB98999999C9BF711623FEC671BCBFE2
:105AD0006D9A74AFF2B0B3BF9AFDDE522DDEADBF4A
